:020000040801F1
:100000002804002049010108610A01086D04010863
:100010005D0A010833020108B31401080000000062
:10002000000000000000000000000000010C0108BA
:100030003702010800000000E90A0108150D010857
:1000400063010108630101086301010863010108FC
:1000500063010108630101086301010863010108EC
:1000600063010108630101086301010863010108DC
:1000700063010108630101086301010863010108CC
:1000800063010108630101086301010863010108BC
:1000900063010108630101086301010863010108AC
:1000A000630101086301010863010108630101089C
:1000B000630101086301010863010108630101088C
:1000C000630101086301010863010108630101087C
:1000D00063010108F11101086301010863010108CE
:1000E000630101086301010863010108630101085C
:1000F000630101086301010863010108630101084C
:10010000630101086301010863010108630101083B
:10011000630101086301010863010108630101082B
:10012000630101086301010863010108630101081B
:10013000DFF810D000F04CF80048004729180108FB
:10014000AFF3008028040020064880470648004797
:10015000FEE7FEE7FEE7FEE7FEE7FEE7FEE7FEE777
:10016000FEE7FEE7550D0108310101082DE9F05FBA
:100170000546002092469B46884606468146402416
:100180001BE0284641464746224600F042F85346C7
:100190005A46C01A914110D311461846224600F023
:1001A00029F82D1A67EB01084F462246012000214D
:1001B00000F020F817EB00094E41201EA4F10104C5
:1001C000DFDC484631462A464346BDE8F09F000042
:1001D000064C074D06E0E06840F0010394E8070094
:1001E00098471034AC42F6D3FFF7A6FF5CE4010851
:1001F0007CE40108202A04DB203A00FA02F1002006
:1002000070479140C2F1200320FA03F31943904054
:100210007047202A04DB203A21FA02F000217047BF
:1002200021FA02F3D040C2F120029140084319465E
:10023000704700BFFEE7704751B18200A2F1C04293
:10024000126842F001038200A2F1C042136009E08B
:100250008200A2F1C0421268034B1A408300A3F14E
:10026000C0431A6070470000FEFF0F00D0E9011282
:100270001143C26811430269114342691143826903
:100280001143C2691143026A1143426A1143826AEF
:100290001143C26A1143026B114302689200A2F13A
:1002A000C0421160816808290BD101688900A1F161
:1002B000C041096841F0400201688900A1F1C041D4
:1002C0000A60416B0968426B526841EA0211426B55
:1002D000926841EA0221426B928941EA0241426BF3
:1002E000128A41EA0251426B127D41EA0261426B7D
:1002F000926911430268521C9200A2F1C04211603F
:10030000C16AB1F5804F1BD1816B0968826B52685D
:1003100041EA0211826B926841EA0221826B128AE1
:1003200041EA0251826B127D41EA0261826B92695D
:10033000114302689200A2F1C042C2F8041107E022
:100340006FF0704201688900A1F1C041C1F8042139
:1003500070472DE9F04102460025002600200023C9
:100360000024002791F803C00CF00F0591F803C09A
:100370000CF0100CBCF1000F03D091F802C04CEA55
:10038000050591F800C0BCF1000F31D014680020C1
:100390002BE04FF0010C0CFA00F3B1F800C00CEAAE
:1003A00003069E4220D183004FF00F0C0CFA03F796
:1003B000BC4305FA03FC4CEA040491F803C0BCF109
:1003C000280F06D14FF0010C0CFA00FCC2F814C043
:1003D0000AE091F803C0BCF1480F05D14FF0010CC1
:1003E0000CFA00FCC2F810C0401C0828D1D31460DD
:1003F000B1F800C0BCF1FF0F34DD546800202EE0DE
:1004000000F1080C4FF0010808FA0CF3B1F800C035
:100410000CEA03069E4221D183004FF00F0C0CFA28
:1004200003F7BC4305FA03FC4CEA040491F803C04B
:10043000BCF1280F05D100F1080C08FA0CF8C2F83D
:10044000148091F803C0BCF1480F07D100F1080CEB
:100450004FF0010808FA0CF8C2F81080401C082878
:10046000CED35460BDE8F0810161704700BFFEE764
:1004700070B506460F484088401E83B20D4800887C
:10048000401E82B20021084600F0DCF800240CE097
:10049000002504E0304600F0B7FA681C85B2054834
:1004A0004088A842F6DC601C84B202480088A04262
:1004B000EEDC70BD1800002000B50346B3B9012082
:1004C00000F08EFA4FF4807000F094FA032000F0F0
:1004D00087FA41F2300000F08DFA4FF4C8700F49EE
:1004E0004880F02008800020887115E0012000F08D
:1004F00077FA4FF4807000F07DFA032000F070FA74
:1005000041F2380000F076FAF020044948804FF4B8
:10051000C87008800120887100BD0000180000200C
:1005200070B504460D4616462B46224629462046FF
:1005300000F088F8304600F067FA70BD2DE9F0430E
:1005400004460D4616461F46DDF81C80B44201DC09
:10055000BD4201DDBDE8F0833B46324629462046D8
:1005600000F070F8301B401C84B2781B401C85B230
:100570000BE0A94602E0404600F046FAB9F100005F
:10058000A9F101011FFA81F9F5D1201EA4F10101A1
:100590008CB2EED100BFDDE710B501460023CA0AD8
:1005A000C1F3451401F01F03500340EA841040EAF0
:1005B000430010BD0549098848104FF6FF7101EA54
:1005C00000200249098840EA610070470008006C79
:1005D0002DE9F84F05460E464FF0000AD34600209D
:1005E000009016480088A84203DD14484088B042B5
:1005F00002DC0020BDE8F88F33462A463146284603
:1006000000F020F840F2022000F0EAF90C480488DB
:100610006402008804430A48048864020088044392
:10062000670BC4F38518C4F34409F80240EA481084
:1006300040EA09001FFA80FA5046DBE71800002064
:100640000008006C70B506460C4615462E488079A9
:1006500050BB4FF4047000F0C3F9304600F0CAF903
:1006600040F2112000F0BCF9284600F0C3F940F236
:10067000122000F0B5F9204600F0BCF940F213203A
:1006800000F0AEF9184600F0B5F94FF4007000F034
:10069000A7F9304600F0AEF940F2012000F0A0F9D1
:1006A000204600F0A7F929E040F2122000F098F966
:1006B000304600F09FF940F2132000F091F92846EF
:1006C00000F098F94FF4047000F08AF9204600F029
:1006D00091F940F2112000F083F9184600F08AF9F0
:1006E00040F2012000F07CF9304600F083F94FF42D
:1006F000007000F075F9204600F07CF940F202200D
:1007000000F06EF970BD0000180000202DE9F84FD0
:1007100080460E4617461C46B3462046E31704EBB8
:100720005373DB1021464FEAE47C04EB5C7C4FEA18
:10073000EC0CA4EBCC0CBCF1000F02D04FF0010C80
:1007400001E04FF0000C6344224604EBD27C4FEAF8
:100750006C0C03FB0CF3DBB20093A7F12000C7B2D3
:10076000002556E00C2C07D107EB47002B4901EB85
:10077000800010F8059013E0102C05D1284800EBFC
:10078000071010F805900BE0182C07D107EBC700F5
:10079000244901EB800010F8059001E0BDE8F88FD6
:1007A0004FF0000A2FE009F0800030B11E480288A7
:1007B00031464046FFF7B4FE07E00A9828B91B48C7
:1007C000028831464046FFF7ABFE4FEA49604FEAE8
:1007D0001069701C86B216484088B04200DCDDE724
:1007E000A6EB0B00A0420AD15E4608F101001FFAF9
:1007F00080F80F480088404500DCCFE706E00AF1AA
:10080000010000F0FF0ABAF1080FCCDB00BF681C42
:10081000C5B200988542A5DB00BFBFE774C80108D8
:10082000E8CC0108D8D201081400002016000020EE
:10083000180000202DE9F84F04460F461546A34640
:10084000009760E0002657E006EB8600C0EB8610BC
:100850002F4911F81000297888424BD106EB860009
:10086000C0EB86102A4901EB400040786978884245
:1008700040D14FF000083AE006EB8600C0EB86104E
:10088000234901EB4000801C10F808A04FF000093C
:1008900026E00AF08000802806D11E4802883946EA
:1008A0002046FFF73DFE05E01B48028839462046FA
:1008B000FFF736FE4FF6FF7000EA4A0A601C84B26A
:1008C000A4EB0B00202807D15C46781C87B2009867
:1008D000381A1D2800D1009F09F1010000F0FF091E
:1008E000B9F1080FD5DB08F1010000F0FF08B8F1FD
:1008F000740FC1DB701CC6B2142EA5DBAD1C04F155
:10090000200084B2A346287800289BD1BDE8F88F48
:1009100034E0010814000020160000202DE9F04FFB
:100920008046894615461E46DDF824A0002700248F
:10093000A34609EB0600401E83B208EB0500401EEB
:1009400082B249464046FFF77DFE05FB06F04FEABE
:10095000400B00BF601C1AF800704FF6FF7000EAF1
:1009600007271AF804000743384600F04DF8A41C86
:100970005C45EFDBBDE8F08F2DE9F84704460D46F6
:1009800090469946DDE9096704F0FF0A08EB040088
:100990001FFA80F809EB05001FFA80F916E04445BC
:1009A00002DB5446A81985B24D4500DB14E0002057
:1009B00000903A78334629462046FFF7A7FE304696
:1009C00006EBD07104EB61018CB27F1C38787E2875
:1009D00002DC38782028E2DA00BFBDE8F8870000A2
:1009E00001124900024A11800106C90D11807047A9
:1009F000FE07006C01124900024A11800106C90D70
:100A0000118070470008006C30B505460024284668
:100A1000FFF7C2FD0446C4F34F20024908800C8052
:100A200030BD00000008006C08B50121102000F066
:100A30006DF8FF20ADF8000010208DF803000320B2
:100A40008DF8020069460448FFF783FCFF21024845
:100A5000FFF70AFD08BD00000010014000BFFEE7DF
:100A60007047000070B5002100230F22C47804B342
:100A7000154C246804F4E064C4F5E064210AC1F173
:100A80000403CA40447804FA03F1847814402143F3
:100A900009010E4C0678A155047804F01F050124C5
:100AA000AC4005786D11AD0005F1E025C5F80041B9
:100AB00009E0047804F01F050124AC40044D0678D9
:100AC000761145F8264070BD0CED00E000E400E032
:100AD00080E100E002490143024A116070470000D2
:100AE0000000FA050CED00E07047000029B1064A4D
:100AF00052690243044B5A6104E0034A526982433B
:100B0000014B5A61704700000010024029B1064AAB
:100B100092690243044B9A6104E0034A926982435A
:100B2000014B9A61704700000010024030B500216F
:100B30000022002400232D4D6D6805F00C0121B129
:100B4000042905D0082923D105E0294D056022E0BC
:100B5000274D05601FE0254D6D6805F47012234D8B
:100B60006D6805F48034022505EB92421CB9214DD5
:100B7000554305600BE01D4D6D6805F400351DB152
:100B80001C4D5543056002E0194D5543056002E0D8
:100B9000174D056000BF00BF144D6D6805F0F001F2
:100BA0000909154D6B5C0568DD4045600F4D6D68AA
:100BB00005F4E061090A104D6B5C4568DD40856015
:100BC0000A4D6D6805F46051C90A0B4D6B5C4568B0
:100BD000DD40C560054D6D6805F44041890B074D4A
:100BE0006B5CC568B5FBF3F5056130BD00100240D4
:100BF00000127A0000093D000000002010000020D3
:100C0000704710B500F002F810BD00000CB50020D0
:100C1000019000903348006840F48030314908600A
:100C200000BF3048006800F4003000900198401C7C
:100C30000190009818B90198B0F5A06FF1D129483A
:100C4000006800F4003010B10120009001E00020A5
:100C500000900098012843D12348006840F010001C
:100C6000214908600846006820F003000860084633
:100C7000006840F0020008601A484068194948605E
:100C80000846406848600846406840F48060486014
:100C90000846406820F47C1048600846406840F4EC
:100CA000E81048600846006840F08070086000BFA7
:100CB0000C48006800F000700028F9D0094840682E
:100CC00020F00300074948600846406840F00200F1
:100CD000486000BF0348406800F00C000828F9D1C4
:100CE0000CBD00000010024000200240042808D182
:100CF0004FF0E021096941F004014FF0E022116159
:100D000007E04FF0E021096921F004014FF0E022F3
:100D1000116170477047000010B504466FF0040081
:100D2000FFF7E4FFE11704EB5171C1F3C701074A74
:100D300011701046007800EB4001C1EBC0104FF677
:100D4000FF7101EAC0000249088010BD20000020A8
:100D50002200002010B51348006840F0010011493E
:100D6000086008464068104908400E494860084637
:100D700000680E4908400B4908600846006820F4E6
:100D8000802008600846406820F4FE0048604FF468
:100D90001F008860FFF735FF4FF0006004490860CE
:100DA00010BD0000001002400000FFF8FFFFF6FE3B
:100DB00008ED00E000B59DB001210802FFF796FEA6
:100DC00001200790002008900F20099000200A9031
:100DD0000B900C900D901520009001900520029032
:100DE0000020039004900590069006200E900020AD
:100DF0000F901090102011900020129014901390DA
:100E0000159016904FF480501790002018904FF4D2
:100E10008040199000201A9007A81B90CDF870D040
:100E20000EA8FFF723FA01210620FFF705FA1DB0EF
:100E300000BD000008B501214FF4B070FFF766FE59
:100E40004CF23370ADF8000018208DF80300032039
:100E50008DF8020069461048FFF77BFA4FF6807064
:100E6000ADF8000018208DF8030003208DF8020073
:100E700069460A48FFF76DFA41F20100ADF800003B
:100E800018208DF8030003208DF8020069460448FD
:100E9000FFF75FFA08BD0000001401400018014090
:100EA0000020014010B5FFF7C5FFFFF783FF322098
:100EB00000F082FC0020FFF793FDFFF77BFBC749A2
:100EC000888008468188C6A000F0F6FA0020FFF767
:100ED00087FD0020FFF784FD0A2000F06DFC002054
:100EE000FFF77EFD0020FFF77BFD0020FFF778FD78
:100EF0000020FFF775FDA420FFF772FD0120FFF72A
:100F000079FD0A2000F058FC6020FFF769FD4FF4DE
:100F10001C50FFF76FFD0820FFF762FD40F6080048
:100F2000FFF768FD4FF44070FFF75AFD40F20910DB
:100F3000FFF760FD40F20130FFF752FD47F60A600F
:100F4000FFF758FD40F20230FFF74AFD40F204700F
:100F5000FFF750FD40F20330FFF742FD40F611105D
:100F6000FFF748FD4FF44170FFF73AFD4FF404508E
:100F7000FFF740FD40F20530FFF732FD41F2091066
:100F8000FFF738FD40F20630FFF72AFD47F2074031
:100F9000FFF730FD40F20730FFF722FD40F60E204C
:100FA000FFF728FD4FF44270FFF71AFD40F60110DD
:100FB000FFF720FD40F20930FFF712FD2120FFF777
:100FC00019FD1020FFF70CFD1020FFF713FD112075
:100FD000FFF706FD40F20220FFF70CFD1220FFF79D
:100FE000FFFC4FF44070FFF705FD1320FFF7F8FCFE
:100FF0000720FFF7FFFC0A2000F0DEFB4FF48070B3
:10100000FFF7EEFC0020FFF7F5FC40F20110FFF7C0
:10101000E7FC0720FFF7EEFC4FF48170FFF7E0FCE0
:101020000020FFF7E7FC40F20310FFF7D9FC002097
:10103000FFF7E0FC4FF42070FFF7D2FC0020FFF731
:10104000D9FCC82000F0B8FB4FF48070FFF7C8FC53
:101050004FF44C70FFF7CEFC40F20110FFF7C0FCDC
:1010600040F24720FFF7C6FC322000F0A5FB4FF40A
:101070008170FFF7B5FC4DF2B010FFF7BBFC3220DA
:1010800000F09AFB40F20310FFF7AAFC4FF48050E7
:10109000FFF7B0FC4FF42070FFF7A2FC4FF446407E
:1010A000FFF7A8FCC82000F087FB0120FFF798FCA1
:1010B0004FF48070FFF79EFC0220FFF791FC4FF485
:1010C0000070FFF797FC0320FFF78AFC41F2300025
:1010D000FFF790FC0920FFF783FC0120FFF78AFC53
:1010E0000A20FFF77DFC0820FFF784FC0C20FFF7A7
:1010F00077FC0020FFF77EFC0D20FFF771FC00203D
:10110000FFF778FC0E20FFF76BFC3020FFF772FC36
:101110002020FFF765FC0020FFF76CFC2120FFF783
:101120005FFC0020FFF766FC2920FFF759FC5220E6
:10113000FFF760FC5020FFF753FC0020FFF75AFC3C
:101140005120FFF74DFCEF20FFF754FC5220FFF732
:1011500047FC0020FFF74EFC5320FFF741FC40F214
:101160003F10FFF747FC6120FFF73AFC0020FFF734
:1011700041FC6A20FFF734FC0020FFF73BFC802095
:10118000FFF72EFC0020FFF735FC8120FFF728FC3D
:101190000020FFF72FFC8220FFF722FC5F20FFF7E3
:1011A00029FC9320FFF71CFC40F20750FFF722FCBC
:1011B0000720FFF715FC4FF48070FFF71BFC32206F
:1011C00000F0FAFA2220FFF70BFC0020FFF774F979
:1011D0004FF6FF70FFF74CF910BD0000180000201B
:1011E000204C43442049443A25780D0A0000000071
:1011F00010B540F225510C4800F096F870B10A483D
:1012000000F04EF9C4B22146074800F04EF900BF85
:101210004021054800F07BF80128F9D1402102481F
:1012200000F060F810BD00000038014010B586B035
:10123000044601210420FFF769FC01218803FFF720
:1012400065FC01210846FFF761FC4FF40070ADF822
:10125000140003208DF8160018208DF8170005A93A
:101260001E48FFF776F84FF48060ADF814000420B4
:101270008DF8170005A91948FFF76BF801940020B5
:10128000ADF80800ADF80A00ADF80C00ADF810009C
:101290000C20ADF80E0001A9114800F095F80121CD
:1012A0000F4800F028F840210D4800F01BF80122FB
:1012B00040F225510A4800F061F825208DF8000021
:1012C00003208DF801008DF8020001208DF8030045
:1012D0006846FFF7C7FB06B010BD000000080140DC
:1012E0000038014001F40072B2F5007F00D100BF68
:1012F000CA430280704721B1828942F40052828140
:1013000004E082894DF6FF731A40828170470246DD
:101310000020B1F5007F00D100BF13880B400BB156
:10132000012000E00020704770B502460024002331
:101330000025002040F66A16B14200D100BFC1F37B
:10134000421501F01F03012606FA03F3012D02D115
:101350009689334006E0022D02D1168A334001E01F
:10136000968A33400C12012606FA04F4168834409B
:1013700013B10CB1012000E0002070BDF0B50346B0
:10138000002400260025002040F66A17B94200D14B
:1013900000BF1846C1F3421401F01F06012707FAE7
:1013A00006F5012C01D10C3004E0022C01D11030E3
:1013B00000E014301AB107682F43076002E00768A5
:1013C000AF430760F0BD00002DE9F04786B0054649
:1013D0000E460024A24600BFA1460027B08900B1F6
:1013E00000BF2F462C8A4CF6FF700440F08804435F
:1013F0002C82AC894EF6F3100440B0883189084342
:10140000718908430443AC81AC8A4FF6FF40044025
:10141000B0890443AC8201A8FFF788FB1F488742CC
:1014200002D1DDF810A001E0DDF80CA0A88900F4DD
:10143000004040B10AEBCA0000EB0A1031684900D5
:10144000B0FBF1F807E00AEBCA0000EB0A103168C4
:101450008900B0FBF1F86420B8FBF0F0040120092A
:10146000642101FB1089A88900F4004040B13220BA
:1014700000EBC900B0FBF1F000F00700044308E006
:10148000322000EB09106421B0FBF1F000F00F00F6
:1014900004432C8106B0BDE8F0870000003801400D
:1014A00001468888C0F308007047C1F308028280B3
:1014B000704700BFFEE700000FB4054B10B503A94D
:1014C000044A029800F018F810BC5DF814FB000004
:1014D000051801082400002002E008C8121F08C1F6
:1014E000002AFAD170477047002001E001C1121FA5
:1014F000002AFBD1704700002DE9FF4F8DB09B46BD
:101500000F460446002606E025280BD05A460F99C0
:101510009047641C761C20780028F5D111B0304625
:10152000BDE8F08F0025A8460122984900E0054358
:1015300014F8013F203B02FA03F00842F7D120786B
:101540002E2817D114F8010F45F004052A280ED0D3
:101550006FF02F022078A0F1300109290AD808EB9A
:10156000880102EB410100EB0108641CF2E757F827
:10157000048B641C20786C280DD004DC4C2812D01D
:101580006A2811D104E074280DD07A280CD10AE021
:1015900045F4001507E0617845F48015814202D1D9
:1015A000641C05F58015641C2078692844D008DC8B
:1015B0000028B3D0582867D063280FD0642808D1FA
:1015C0003AE0702865D0732812D075285AD0782850
:1015D0005AD05A460F999047761CD5E017F8040B5D
:1015E0008DF8000000208DF80100E946012003E09D
:1015F00057F8049B4FF0FF3069074FF0000501D406
:101600000AE06D1C45450DDA8542FADB19F8051034
:101610000029F6D106E06D1C8542FCDB19F80510A7
:101620000029F8D12E4404E019F8010B5A460F990D
:1016300090476D1EF8D2A7E00A200021CDE90801ED
:10164000C5F3025002280CD001CFC117021E71F160
:1016500000020CDA0023D0EB030063EB01012D2222
:1016600008E0FF1D27F00707F7E80201EEE72A056B
:1016700004D52B228DF8282001223CE0EA073AD03D
:101680002022F7E70A2000E010200021CDE9080120
:1016900007E01020002145F00405CDE908014FF0D6
:1016A0000808C5F30250022810D001CF00214FF0E6
:1016B000000A2A0720D52278702A0DD0DDE908C358
:1016C0008CF0100C5CEA030C0CD015E0FF1D27F029
:1016D0000707F7E80201EAE740228DF828204FF0DB
:1016E000010A0CE050EA010306D030238DF82830BF
:1016F0008DF82920022292462278582A04D024A26A
:101700000DF120090B9209E026A2F9E7DDE9082393
:10171000FEF72CFD0B9B9B5C09F8013D50EA010292
:10172000F4D1ADEB090020300890680701D44FF0E8
:1017300001080899884503DD0898A8EB000000E03F
:1017400000208046002506E00AA85A46405D0F9911
:1017500090476D1C761C5545F6DB04E030205A4658
:101760000F999047761CB8F10001A8F10108F5DC4B
:1017700005E019F8010B5A460F999047761C089915
:10178000481E08900029F4DC641CC4E60928010006
:1017900030313233343536373839616263646566E7
:1017A00000000000303132333435363738394142A9
:1017B00043444546000000000146114A12884A434E
:1017C0004FF0E0235A6100229A611A46126942F0F2
:1017D00001021A6100BF4FF0E022106900F001021F
:1017E0001AB100F48032002AF5D04FF0E0221269DD
:1017F00022F001024FF0E0231A6100229A61704743
:101800002200002070B504460D46E1B20548FFF7FE
:101810004CFE00BF80210348FFF779FD0028F9D076
:10182000204670BD003801401CB5002400253D480D
:101830003D4908604820FFF76FFA4FF4A060FFF7BA
:1018400049F9FFF7F1F84FF41650FFF7EFFCFFF7F7
:1018500029FB00203549088035A00C21CDE9001076
:101860003748438802880A210846FFF785F830A0E8
:101870001021CDE900103248438802881E210A2039
:10188000FFF77AF82AA01821CDE900102C484388E8
:10189000028832210A20FFF76FF82AA250210A207D
:1018A000FEF7C8FF2AA01821CDE90010244843887C
:1018B000028878210A20FFF75FF81F20B4233C221A
:1018C000962100900A20FEF739FEA0211420FEF791
:1018D0007FFE0546B4239622114664200095FEF74C
:1018E0002DFE29461EA0FFF7E7FD20487023C822E1
:1018F000DC2100901420FFF711F812E0601CC4B244
:10190000142094FBF0F100FB114038B9184800682E
:1019100008B9012000E00020154908600A20FFF7FF
:101920004BFFEBE70000010808ED00E01400002089
:1019300048656C6C6F20576F726C6421000000006A
:1019400018000020C6D5D6D0BFC6BCBC0000000021
:101950007777772E7072656368696E2E636E00000C
:10196000636F6C6F723D25780D0A000074190108D1
:10197000800122428A4A8A4A8A4A8A4A8A4A8A4A8A
:101980008A4A8A4A8A4A8A4A8A4A8A4A8A4A8A4AB7
:10199000AA52AA52AA52AA52AA52AA52AB52AB5265
:1019A000AB52AB52AB52CB52CB52CB52CB52CB52AF
:1019B000CB52CB52CB52CB52EB5ACB52CB52EB5AEF
:1019C000EB5AEB5AEC5AEB5AEC5A0C5B0C5B0C5B87
:1019D000EC5A0C5B0C5B0C5B0C5B0C5B0C5B2C63C8
:1019E0002C630C5B2C630C5B2C630C632C5B2C63F7
:1019F0000C5BEB5A4D634D634D634D6BEC5A2C639E
:101A00000C5B6E6BAA522421A218E318452904210D
:101A100004212421E318C318A218C318C318A2185C
:101A2000A218C218A2108210A210A210821061087F
:101A3000610840084108610882106110400861088F
:101A400041088210A210E320C318C318E3206531B7
:101A500008420842EB5AAB524D6B4D634D634D63E8
:101A60004D634D634D636D6B4D634D6B4D6B4D63BE
:101A70004D634D634D634D634D634D634D632D6306
:101A80004D632D632D632D632C632C632C630C63DA
:101A90002C630C630C630C5B0C630C630C5B0C63BE
:101AA0000C630C5BEC5AEC5AEC5AEC5AEC5AEC5ABC
:101AB000EC5AEC5AEB5AEB5ACB5AEB5ACB5AEB5A3C
:101AC000CB5ACB5ACB5ACB52CB5AAB52AB52AB526E
:101AD000AB52AB52AB52AA52AA528A52AA528A5263
:101AE000AA528A528A528A528A528A528A528A52F6
:101AF0008A528A4A8A4A8A526A4A8A4A8A4A8A4A56
:101B00006A4A8A4A8A4A8A4A8A4A8A4A8A4A8A4A55
:101B10008A4A8A4A8A4A8A4A8A4AAA528A4AAA52D5
:101B2000AA52AA52AA52AA52AA52AB52AA52AB52D3
:101B3000AB52CB52CB52CB52CB52CB52CB52CB52DD
:101B4000CB52CB52EB5ACB52CB52CB52EB5AEB5A35
:101B5000EB5AEC5AEB5AEC5A0C5B0C5B0C5B0C5BD3
:101B60000C5B0C5B0C5B0C5B0C5B2C632C630C5BED
:101B70002C632C632C632D630C630C632C632C632C
:101B80004D63EC5A2C634D6B4D6BCB5A4D6B0C5B1C
:101B90006C6B86316110A3100421252904210421D6
:101BA000E420E318C318A318C318C318A31882109D
:101BB00081108210A218610841088210611061082A
:101BC0002108400861082008410861088210610866
:101BD0008210410861088210E3200421C318A2107A
:101BE000C3186529C739AA526A4A4D636E6B4D63A3
:101BF0008E6B4D636D6B6D6B6D6B6D6B6D6B6D6B2C
:101C00004D6B4D6B4D6B4D6B4D634D634D634D6334
:101C10004D6B4D634D632D632D632C632D632C63DE
:101C20002C632C632C632C630C630C630C630C63BC
:101C30000C5B0C5B0C5B0C5B0C5BEC5A0C5B0C5B8D
:101C4000EC5AEC5AEC5AEB5AEB5AEB5ACB5ACB5AA9
:101C5000EB5ACB5ACB5ACB5ACB52CB5ACB52CB5254
:101C6000AB52AB52AB52AB52AA52AA52AA528A52B0
:101C70008A52AA528A528A528A528A528A528A5264
:101C80008A4A8A4A8A528A528A4A6A4A6A4A8A4AE4
:101C90006A4A8A4A8A4A8A4A8A4A8A4A8A4A8A4AC4
:101CA0008A4A8A4A8A4AAA52AA528A4AAA52AA52F4
:101CB000AA52AA52AA52AA52AB52AB52AA52CB5221
:101CC000AB52CB52CB52CB52CB52CB52CB52CB524C
:101CD000CB52CB52EB5AEB5AEB5AEB5AEB5AEB5A2C
:101CE000EB5AEC5AEC5A0C5B0C5B0C5B0C5B0C5B20
:101CF0000C5B0C5B0C5B0C5B0C5B2C632C632C6334
:101D00002C632C630C632D634D630C5B0C5B4D6388
:101D10002C632C630C634D63EB5A4D6B2C63EB5AB5
:101D2000E3206110C31825290421242145292529F0
:101D300004210421E320E320C318A218A218A21052
:101D4000610841086110C318811081108110A21030
:101D500061088210A218A2188210821081108110CE
:101D6000A2102108410841086210E32065292421BE
:101D700082108210E31886318A528A520C636D6B8E
:101D80004D638E6B8E6B6E6B8E6B6D6B6D6B6D6B57
:101D90006D6B6D6B4D6B4D6B6D6B6D6B4D634D6B0B
:101DA0004D6B4D6B4D6B4D6B2D634D634D632D63D3
:101DB0002C632C632C632C632C632C632C632C5BB3
:101DC0000C5B0C5B0C630C5B0C5B0C5B0C5B0C5BD3
:101DD0000C5B0C5BEC5AEB5AEC5AEC5AEB5AEB5A94
:101DE000EB5AEB5ACB5ACB5ACB5ACB5ACB5ACB5293
:101DF000AB52AB52AB52AB52AB52AA52AA52AA52FE
:101E0000AA528A52AA528A528A528A528A528A52B2
:101E10008A528A528A528A52894A8A4A6A4A6A4A43
:101E20008A4A8A528A4A8A4A8A4A8A4A8A4A8A4A0A
:101E30008A4A8A4A8A4AAA528A4AAA52AA52AA5262
:101E4000AA52AA52AA52AA52AA52AB52AB52AB52AF
:101E5000AB52CB52CB52CB52CB52CB52CB52EB5A92
:101E6000CB52EB5AEB5AEB5AEB5AEB5AEB5AEC5A71
:101E7000EC5A0C5B0C5B0C5B0C5B0C5B0C5B0C5B4B
:101E80000C5B0C5B0C5B0C5B2C632C632C632C637A
:101E90002C632D632C634D634D632D632C632C6386
:101EA0004D6B2D63EB5AEC5A4D6BEC5A6952811015
:101EB000A218E32004212429452945292421E318D7
:101EC000C318E320C3188210C318C318E320A21854
:101ED000A2188210A210A210C2188210A218C31851
:101EE000E318A2188210A2188210611061088210F3
:101EF00081108210611061086108A210A2182529C2
:101F0000452904218210611024292842694A0C6362
:101F10004D6B8E6B8E6B8E6B8E6B6E6B6E6B6E6B9A
:101F20006E6B6D6B6D6B6D6B6D6B6D6B6D6B4D6B10
:101F30006D6B4D6B4D6B4D6B4D6B4D6B4D634D63D1
:101F40004D634D634D632C632C632C632C632C63B6
:101F50000C630C630C5B0C5B0C5B0C5B0C5B0C5B39
:101F60000C5B0C5BEC5AEC5AEB5AEB5AEB5AEB5A03
:101F7000EB5AEB5ACB5ACB5ACB5ACB5ACB5ACB5AF9
:101F8000CB52AB52AB52AB52AB52AB52AA52AA524B
:101F9000AA52AA528A528A528A528A528A528A5221
:101FA0008A528A528A4A8A528A4A8A528A4A8A4A71
:101FB0006A4A8A528A4A8A4A8A4A8A4A8A4A8A4A99
:101FC0008A4A8A4A8A4A8A4A8A4AAA52AA52AA52F9
:101FD000AA52AA52AA52AA52AB52AA52CB52CB52DE
:101FE000CB52CB52CB52CB52CB52EB5AEB5AEB5A91
:101FF000CB52CB52EB5AEB5AEB5AEB5AEB5AEB5A09
:10200000EC5AEC5A0C5B0C5B0C5B0C5B0C5B0C5BDA
:102010000C5B2C632C632C632C632C632D632C636F
:102020004D634D634D632D636D6B2C634D632C636A
:102030004D6B4D6BAA520C630C63284A8110C21879
:10204000E3200421252965294529E32024210421B1
:102050000421C318C318C318A21061108110E32013
:102060000421C31882108110C3180421E320A21890
:10207000C318A21882106110611041108110611004
:102080008210A21082104008811061088210C318CB
:10209000242924212529E420821004212842694A88
:1020A0000C5B2C638E6B8E6B8E6B8E6B8E6B8E6B64
:1020B0006E6B8E6B8E6B6E6B6D6B6D6B6D6B6D6B1C
:1020C0004D6B4D6B4D6B4D6B6D6B4D6B4D6B4D6338
:1020D0004D634D634D632D632D632C632C632C6323
:1020E0000C632C632C5B0C5B0C5B0C5B0C5B0C6360
:1020F000EC5A0C63EC5AEC5AEC5AEC5AEB5AEB5A89
:10210000EC5AEB5ACB5AEB5ACB5ACB5ACB5ACB5A46
:10211000CB5ACB52CB52AB52AB52AB52AA52AA5271
:10212000AB528A528A52AA528A528A528A528A528E
:102130008A528A528A528A528A4A8A4A8A526A4AF7
:102140006A4A8A528A4A8A4A8A4A8A4A8A4A8A4A07
:102150008A4AAA52AA52AA52AA528A528A52AA5207
:10216000AA52AA52AA52AB52AB52AA52CB52CB524B
:10217000CB52CB52CB52CB52CB52EB5AEB5ACB5227
:10218000EB5AEB5AEB5AEB5AEB5AEC5AEB5A0C5B04
:102190000C5BEC5A0C5B0C5B0C5B0C5B0C5B2C6300
:1021A0002C632C632C632C632C632D632D632D63B4
:1021B0002D634D634D634D632C636D6B6D6B2D63B0
:1021C0002C632C630C638A52C6398110A218042137
:1021D0002421242986310421042145290421E320D6
:1021E000C318C3180321E320C318E320E320E3202E
:1021F000E320042124294531653103210321E32013
:10220000A218A218A21882108210821082106110E7
:1022100081106110A2106108200841086108C218ED
:10222000C31845294529E320E318A218E318A63965
:1022300089520C630C636E6B8E738E6B8E6B8E6B20
:102240008E6B8E6B6D6B6E6B8E6B6E6B6E6B6D6B68
:102250006E6B6E6B6D6B6D6B6D6B6D6B4D6B4D6BFC
:102260004D634D634D634D634D634D632D632C632F
:102270002C632C632C632C632C630C5B0C5B0C5B5E
:102280000C5B0C630C630C5B0C5BEC5AEC5AEC5A69
:10229000EB5AEB5AEB5AEB5AEB5ACB5ACB5ACB527E
:1022A000CB52CB5ACB5ACB52CB52AB52AB52AA5297
:1022B000AB52AA528A528A52AA52AA528A528A52BD
:1022C0008A528A528A528A528A528A528A526A4A56
:1022D0006A4A8A528A4A8A4A8A4A8A4A8A4A8A4A76
:1022E000AA52AA528A4AAA52AA52AA52AA52AA5236
:1022F000AA52AA52AA52AB52AB52AB52CB52CB52B9
:10230000CB52CB52CB52CB52CB52CB52EB5AEB5A95
:10231000EB5AEB5AEC5AEB5AEC5AEC5AEC5A0C5B6F
:102320000C5B0C5B0C5B0C5B0C5B2C632C632C63FD
:102330002C632C632C632D632D634D634D634D63C0
:102340004D634D634D636D6B4D634D638E6B6D6B74
:102350000C63AB522C63A6398110C318452925297B
:102360002421452924212421452924292429042103
:102370000421242982106110C318C318A2108210EE
:10238000E31844294429242924292429E320C318B3
:10239000A218C318C21882108210821082108210F4
:1023A000A210A2108210A21861106108A210C21817
:1023B000E318242924292421E318E318C318C21898
:1023C00065298A522C632D634D6BAE73AE73AE7369
:1023D0006E6B6E6B8E6B8E6B8E6B8E6B8E6B8E6B75
:1023E0008E6B6E6B8E6B6E6B6E6B6D6B6D6B6D6BE8
:1023F0006D6B4D634D634D634D634D634D634D6335
:102400002D632C632C632C632C632C632C632C5B5B
:102410000C630C630C630C5B0C63EC5AEC5AEC5AC7
:10242000EC5AEB5AEC5AEB5AEB5AEB5AEB5ACB5AA2
:10243000CB52CB5ACB5ACB5ACB5ACB52AB52AB52D4
:10244000AB52AB52AA52AA52AA52AA528A528A52EA
:102450008A528A528A528A528A528A528A4A8A4AAC
:102460008A4A8A528A4A8A4A8A4A8A4A8A4A8A4AC4
:10247000AA52AA52AA52AA52AA52AA52AA52AA527C
:10248000AA52AA52AB52AB52CB52CB52CB52CB52E6
:10249000CB52CB52CB52CB52EB5AEB5AEB5AEB5AB4
:1024A000EB5AEB5AEB5AEC5AEC5A0C5BEC5A0C5BBD
:1024B0000C5B0C5B0C5B0C5B0C5B2C632C632C636C
:1024C0002C632D632D634D634D634D634D634D63ED
:1024D0004D634D636D6B6D6B4D6B4D6B2C636D6B15
:1024E000CA5A2C6385316110A218042104212429C1
:1024F0004529E31845294529242945290421032193
:10250000E3204108A210C31804210429452986317B
:1025100065312429442944290321C3200321E320D0
:10252000E3206110611082106110410841086110C0
:102530006110A21861108210A21061086108A21037
:10254000C318E318E420E318E320A210C318A3186B
:10255000A2104529CB5A2D634D6B4D6B6D6B8E6B65
:10256000AE73AE738E6B8E6B8E6B8E6B8E6B8E6B53
:102570008E6B8E6B8E6B8E738E6B6D6B8E6B6D6BCD
:102580006D6B6D6B4D6B6D6B4D634D6B4D634D6343
:102590004D634D634D632C632C632C632C632C6360
:1025A0000C630C630C630C630C630C5B0C5BEC5AEC
:1025B000EC5AEC5AEB5AEB5AEB5AEB5AEB5ACB5A11
:1025C000CB5ACB5ACB5ACB5ACB52CB52CB52AB5223
:1025D000AB52AA52AB52AA52AA52AA52AA528A5239
:1025E0008A528A528A528A52AA528A528A528A52EB
:1025F0008A4A8A528A4A8A4A8A4A8A4A8A4AAA520B
:102600008A4AAA52AA52AA52AA52AA52AA52AA5212
:10261000AA52AB52AB52AB52CB52CB52CB52CB5253
:10262000CB52CB52CB5AEB5AEB5AEB5AEB5AEB5AF2
:10263000EB5AEC5AEC5AEC5AEC5AEC5A0C5B0C5B29
:102640000C5B0C5B0C5B2C632C632C632C632C638A
:102650002C632D634D634D634D634D634D634D633B
:102660006D6B6D6B6D6B6D6B4D6B6D6B4D6BCB5A9D
:102670000C5BA6398110A318E3200421452904210D
:10268000E420653186316531042104210421C2181A
:10269000821004216529A6398531653185392429BF
:1026A00024294431E320C218E320A21861106110EC
:1026B0008210E320811041086110811061106110C7
:1026C00061088210811061106110A2186110611000
:1026D000A218E32025294529E420C318821082107E
:1026E000C318A21024296D6B0C630C5B6D6B6E6BB1
:1026F000AE738E6B8E6B8E6B8E6B8E6B8E6B8E6BEA
:102700008E6B8E6B8E6B8E6B8E6B8E6B8E6B8E6B01
:102710008E6B6D6B6D6B6D6B6D6B4D6B4D634D6348
:102720004D634D634D632D634D632C632C632C63AC
:102730002C630C630C630C630C5B0C630C5B0C5B19
:102740000C63EC5AEC5AEB5AEB5AEC5AEB5ACB5A54
:10275000EB5ACB5ACB5ACB5ACB5ACB52CB52CB5249
:10276000AB52AA52AB52AA52AA52AA52AA528A52A7
:102770008A528A528A528A528A528A528A528A5279
:102780008A4A8A528A4A8A4A8A4A8A4AAA528A4A79
:10279000AA52AA52AA52AA52AA52AA52AA52AA5259
:1027A000AB52AB52AB52AB52CB52CB52CB52CB52C1
:1027B000CB52CB5AEB5ACB5AEB5AEB5AEB5AEB5A59
:1027C000EC5AEB5A0C5B0C5B0C5B0C5B0C5B0C5B14
:1027D0000C5B0C5B2C632C632C632C632D632C63D0
:1027E0002C634D634D634D634D636D6B6D6B6D6B12
:1027F0006D6B6D6B6D6B8E6B6D6B6E6B0C63CB5A13
:1028000007426110C318E318242145292429042113
:102810006531A6390421452925292429E3200421ED
:102820006531A63165316531A63965312429242900
:10283000E320C320E320C218A218A2108210C218FD
:1028400082108210E320C318A2108110611040088A
:102850008210811081106110611081108210410876
:102860008210A218042166312429E318C318A21883
:102870008210C218C21803210C634D6B2D63EB5AF2
:102880004D6B8E73AF73AF73AF73AF73AE73AE73C5
:102890008E6BAE738E6BAE738E6B8E6B8E6B8E6B20
:1028A0008E6B6E6B6E6B6D6B6D6B6D6B6D6B4D636D
:1028B0004D634D634D634D634D634D632D632C63D9
:1028C0002C632C632C632C632C5B0C5B0C630C5B08
:1028D0000C5B0C5BEC5AEC5AEC5AEB5AEB5AEB5A89
:1028E000EB5ACB5AEB5ACB5ACB5ACB5ACB5ACB5288
:1028F000CB52AB52AA52AA52AA52AA52AA52AA52D6
:10290000AA52AA528A528A528A528A528A528A52A7
:102910008A52AA528A4A8A4A8A4AAA52AA52AA526F
:10292000AA52AA52AA52AA52AA52AA52AA52AA52C7
:10293000AA52AB52AB52CB52CB52CB52CB52CB5210
:10294000CB52EB52EB5AEB5AEB5AEB5AEB5AEC5A8E
:10295000EB5A0C5B0C5B0C5B0C5B0C5B0C5B0C5B61
:102960000C5B2C632C632C632C632C634D634D63D5
:102970004D634D634D634D634D636D6B6D6B6D6B5F
:102980006D6B6E6B6D6B8E6B6D6B0C63CB52694AAE
:102990008110A218C31804214529E3202429863177
:1029A00065310421863165314529242924294529A9
:1029B00045296631A63986396531242924292429F7
:1029C00044294429E320E320A218C318C318821025
:1029D000A2188110811082106110A2188218611053
:1029E0008210A2108210811082106110821061107A
:1029F00061086110A218C320653165310421A31854
:102A0000C318A210C218A2188631CB5A0C63AF7338
:102A10004D6B4D6BCF73AE73AE73AE73AF73AE735E
:102A2000AE73AE73AE73AE73AE738E6BAE738E6BEE
:102A30008E6B8E6B8E6B6E6B6E6B6E6B6D6B6D6B70
:102A40006D6B4D6B4D634D634D634D634D632D63F6
:102A50002D632C632C630C632C632C630C5B0C6365
:102A60000C630C630C5B0C5BEC5AEC5AEC5AEB5AA3
:102A7000EB5AEB5AEB5ACB5ACB5ACB5ACB5ACB5ACE
:102A8000CB5AAB52AB52AB52AB52AB52AB52AB5236
:102A9000AA52AA52AA52AA52AA528A528A528A52B6
:102AA0008A528A528A4A8A4A8A4AAA52AA528A4A26
:102AB000AA52AA52AA52AA52AA52AA52AB52AB5234
:102AC000AB52AB52CB52CB52CB52CB52CB52CB525E
:102AD000EB5AEB5AEB5AEB5AEB5AEC5AEC5AEC5ACB
:102AE000EC5A0C5B0C5B0C5B0C5B0C5B0C5B2C63A7
:102AF0002C632C632C632C632C632D634D634D631B
:102B00004D634D634D634D636D6B6D6B6D6B6D6BA5
:102B10006E6B8E6B6E6B8E730C630C63CA5AA2184D
:102B2000A218C31824292421C31865316531452909
:102B30004529653145298631452924296531653185
:102B4000C639A639242924296531653145314429FE
:102B5000E320C318C218A218C318A218A218C318D9
:102B6000A218A21882106110821082106110A2189F
:102B70008210821082108210A218821061108110BF
:102B800061088210C218C318C318E3206531E3201E
:102B900061108210A218A2188210E7392C632C63EE
:102BA0008E6B0C632D63CF73CF73AE73AE73AE7346
:102BB000AE73AF73CF73AF73AF73AE73AE73AE73E9
:102BC0008E6B8E738E6B8E6B6E6B8E6B6D6B6D6B97
:102BD0006D6B6D6B6D6B4D634D634D6B4D634D63F5
:102BE0002D632D632D632C632C632C632C630C638A
:102BF0000C630C630C630C5BEC5A0C5BEC5AEC5AE8
:102C0000EB5AEC5AEB5AEB5ACB5ACB5ACB5ACB5A1B
:102C1000CB5ACB52AB52AB52AB52AB52AB52AA5285
:102C2000AA52AA52AA528A528A52AA528A528A5244
:102C30008A528A528A4A8A4AAA528A4A8A4AAA5294
:102C4000AA52AA52AA52AA52AA52AA52AA52AB52A3
:102C5000AB52AB52CB52CB52CB52CB52CB52EB5AA4
:102C6000EB5ACB5AEB5AEB5AEC5AEB5AEC5AEC5A59
:102C7000EC5A0C5B0C5B0C5B0C5B0C5B0C5B2C6315
:102C80002C632C632C632C634D634D634D634D6348
:102C90004D636D6B6D6B6D6B6D6B6D6B6D6B6E6B9B
:102CA0008E6B6E6B8E6B6D6B0C63AA522429821037
:102CB000A2180421E420E3182421452904214529F0
:102CC000452965318531863144298531A639C6418A
:102CD000A63965318639A639653185312429E32045
:102CE000C32004210421E320C318A218A2186110F4
:102CF00082108210A2188210811081108110A210FF
:102D0000A218A2188110A218A218E3208210A218FB
:102D100061104108A218E32025292429042145290E
:102D2000E3188210410881108210E3208A526D6BF3
:102D3000AE738E734D6B8E73F07BCF73CF73CF7387
:102D4000CF73CF73CF73CF73CF73AF73AF73AE73D4
:102D5000AE73AE738E6B8E6B8E6B8E6B8E6B8E6B5B
:102D60006E6B6E6B6D6B6D6B6D634D6B4D6B4D6311
:102D70004D634D634D634D632D632C630C630C6396
:102D80000C630C630C630C630C5B0C5B0C5BEC5A0C
:102D9000EC5AEB5AEC5AEB5ACB5AEB5ACB5ACB5A69
:102DA000CB5ACB5ACB5AAB52AB52AB52AB52AB52C3
:102DB000AA52AA52AA52AA528A52AA52AA528A5273
:102DC0008A528A528A4A8A4AAA528A4AAA528A4A03
:102DD000AA52AA52AA52AA52AA52AA52AB52AB5211
:102DE000AB52CB52CB52CB52CB52CB52CB52CB521B
:102DF000EB5AEB5AEB5AEB5AEC5AEB5A0C5B0C5B66
:102E00000C5B0C5B0C5B0C5B0C5B0C5B2C632C633A
:102E10002C634D632C634D634D634D634D636D6B4C
:102E20004D636D6B6D6B6D6B6E6B6D6B6E6B8E6BE7
:102E30008E6B8E6B8E6B8E6BAA52A63182108210B7
:102E4000E320C31804210421242904214529042155
:102E500065316531653104216531A639A6396531A1
:102E60006531A639242945314429E320C318242992
:102E70004531E320C318A218C318C318C318E320B0
:102E8000A21882108210A218C218A218A218A218A2
:102E9000A218C218E320A218C218C218C218A21899
:102EA000611041086110A218042145292429042138
:102EB000E320C218A21861108210A21804218A52BD
:102EC0002D63EF7BAF730C5BCF7BEF7BEF7BEF7BF7
:102ED000CF73CF73CF73CF73CF73CF73CF73CF73E2
:102EE000AF73AE73AE73AE73AE738E6B8E6B8E6B51
:102EF0008E6B6E6B6E6B6D6B6E6B4D6B4D6B4D6B4E
:102F00004D634D634D634D634D632D632C632C63A3
:102F10002C630C630C630C630C630C5B0C5BEC5A52
:102F2000EC5AEC5AEB5AEB5AEB5ACB5ACB5ACB5AD7
:102F3000CB5ACB5ACB5ACB5AAB52AB52AB52AB5209
:102F4000AB52AA52AA52AA52AA52AA528A528A52E0
:102F50008A528A528A4AAA52AA528A4AAA52AA5221
:102F6000AA52AA52AA52AA52AB52AB52CB52AB525D
:102F7000CB52CB52CB52CB52CB52CB52CB52EB5A41
:102F8000EB5AEB5AEC5AEC5AEB5AEC5A0C5B0C5BD2
:102F90000C630C630C5B0C5B2C632C632C632D6348
:102FA0004D632D634D634D634D634D636D6B4D6399
:102FB0006D6B6D6B6D6B6D6B8E6B6E6B8E6B8E6BED
:102FC0008E6B8E6B8E6B2C632842A2108218A21817
:102FD000C318E320042145292429452924296531E2
:102FE0008631653145296531C739C639A63965311C
:102FF000863145296531452965314429452904290A
:10300000E320E320C2188210821081108108821010
:103010008210821082108210A218A218C318C3183E
:10302000E320E3204429E320E32003210321442972
:103030002429A21882104108611082100421042161
:10304000E320C318A21882108110A2108218042154
:103050006D6B4D6BAF7331840C63EF7BCF73CF73AC
:10306000EF7BEF7BEF7BEF7BEF7BEF7BCF73CF7360
:10307000CF73AF73AF73AF73AF73AE738E6B8E6B73
:103080008E6B8E6B8E6B8E6B8E6B6D6B6D6B6D6BDB
:103090004D6B4D634D6B4D634D634D634D632D63C0
:1030A0002C632C630C630C630C630C630C63EC5A91
:1030B0000C5BEC5AEC5AEB5AEB5AEB5ACB5AEB5AE4
:1030C000EB5ACB5ACB5ACB52CB5ACB52CB52AB52F8
:1030D000AB52AB52AA52AA52AA52AA528A528A524E
:1030E0008A52AA528A4AAA528A4AAA52AA52AA5270
:1030F000AA52AA52AA52AA52AB52AB52AB52CB52CC
:10310000CB52CB52CB52CB52CB52EB5AEB52EB5A67
:10311000EB5AEB5AEC5AEC5A0C5B0C5B0C5B0C5BFD
:103120000C630C630C632C632C632C632C632C6387
:103130004D634D634D634D634D636D6B6D6B6D6B97
:103140006D6B6D6B6D6B8E6B8E6B8E6B8E6B8E6B1A
:10315000AE6BAF736D6B8952E320A218A318C3182E
:10316000E32024290321452904212429452945292F
:10317000663145296531C741A639A6398631863180
:103180006531653145312429242944290329042145
:10319000C31882108210A218C318E320E320E32092
:1031A000C318C318E320C3200321032104292431B9
:1031B0000321653145316539453145314431853922
:1031C000E641A639A2188210A210C318C318C3186A
:1031D0002421C318C318821081108110C218A218AC
:1031E000A6398E6B2D631084CF738E6B107CF07BB1
:1031F000F07BF07BEF7BEF7BEF7BEF7BEF7BCF73A5
:10320000CF73CF73CF73CF73AF73AE73AE73AE7331
:10321000AE738E6B8E6B8E6B8E6B6E6B8E6B6D6BFF
:103220006D6B4D6B6D6B4D6B4D6B4D6B4D6B4D63A6
:103230002D632C632C630C630C630C630C630C63B5
:103240000C630C5BEC5AEC5AEC5AEB5AEB5AEB5A07
:10325000CB5ACB5ACB5ACB5ACB5ACB5AAB52CB5276
:10326000AB52AB52AB52AA52AA52AA528A52AA529B
:103270008A52AA52AA528A4A8A4AAA52AA52AA52DE
:10328000AA52AA52AA52AA52AB52AB52AB52CB523A
:10329000CB52CB52CB52CB52CB52EB5AEB5AEB5ACE
:1032A000EB5AEB5AEC5A0C5B0C5B0C5B0C5B0C5B4B
:1032B0000C630C630C632C632C632C632D634D63D4
:1032C0004D634D634D634D634D636D6B6D6B6D6B06
:1032D0006D6B8E6B8E6B6E6B8E6B8E6B8E6B8E6B67
:1032E000AE73CF73AA52A6398210A218C318E32076
:1032F000E320E32024292429E32065318631452970
:1033000045296531A639A639A63986318639653110
:1033100065312429242986312429C320E320821001
:10332000C320042924290421E32004214429242939
:10333000242945292429242924296531A6398539B8
:103340008539A539074AA639C741084AE741074ADE
:10335000895AE7416531E320E318E4200421042180
:10336000C318E320C318A218811082108210A2187B
:10337000C318EC628E730C6351844D633184107CEE
:10338000107C107C107C107CF07BEF7BF07BF07B62
:10339000F07BCF73CF73CF73CF73CF73AF73AE7335
:1033A000AF73AE738E6B8E6B8E6B8E6B8E6B6E6B24
:1033B0006E6B6E6B6D6B6D6B4D6B4D6B4D6B4D6BCB
:1033C0004D632D632D632C632C630C630C630C63C2
:1033D0000C630C5B0C5BEC5AEC5AEC5AEB5AEB5A54
:1033E000EB5ACB5ACB5ACB5ACB5ACB5ACB5ACB529D
:1033F000AB52AB52AA52AA52AA52AA528A528A522B
:103400008A52AA52AA528A4AAA52AA52AA52AA5224
:10341000AA52AA52AB52AB52CB52CB52CB52CB5246
:10342000CB52CB52CB52CB52CB52EB5ACB5AEB5A5C
:10343000EC5AEB5AEC5A0C5B0C5B0C5B0C5B0C5BB8
:103440000C630C630C632C632C632C632D634D6342
:103450004D6B4D634D636D6B6D6B6D6B6D6B6E6B1B
:103460006E6B8E6B8E6B8E6B8E6B8E6BAE73AE7364
:10347000CF730C63CB5A8110A218C318C318042150
:10348000E32024290321E320653124294429452907
:1034900066318631A63986316631A63965316631A5
:1034A00024296531863124292429E3200429453142
:1034B0000429E320E3202429242924290429443150
:1034C000653124318539853944318539C641C64154
:1034D000E6414852685A2852685ACA62685A2C73A0
:1034E000AA62C641A6394429042104212429242999
:1034F0000421C318A218A218A210811082108210F1
:10350000821044296D6B8E732C63EF7BCF733184F3
:103510003084107C107C107C107C107C107CF07B44
:10352000F07BF07BF07BF07BCF73CF73CF73CF73E7
:10353000AF73AF73AF73AE738E6B8E6B8E6B8E6B20
:103540008E6B6E6B6E6B6D6B6D6B6D6B4D6B4D6BD8
:103550004D6B4D632D632D632C632C630C630C63E7
:103560000C630C630C63EC5AEC5AEC5AEC5AEB5AB1
:10357000EB5AEB5ACB5ACB5ACB5ACB5ACB5ACB5AE3
:10358000CB52AB52AB52AB52AA52AA52AA52AA5237
:103590008A52AA528A4A8A4AAA52AA52AA52AA52BB
:1035A000AA52AA52AB52CB52CB52CB52CB52CB5295
:1035B000CB52CB52CB52CB52EB5AEB5AEB5AEB5A83
:1035C000EC5AEC5A0C5B0C5B0C5B0C5B0C5B0C5B05
:1035D0000C632C632C632C632D634D634D634D632F
:1035E0004D6B4D6B4D636D6B6D6B6D6B8E6B6E6B61
:1035F0006E6B8E6B8E6B8E6BAE73AE738E6BAE73AB
:10360000AF73EB5A65298210A218C318E320E32098
:10361000E320E320E3202429042103210421242999
:103620002429E741653186396531653185310321CA
:1036300065316531E3200429E3200321C318A2107A
:10364000E31824292429653186398531C641853915
:10365000E7412852695A695A2752C6410752685AA7
:103660006852685A0B73685A2B7B8C83EA6A2B73F7
:103670002852074AC6418639653124290421E320AE
:10368000C318C318C318A218A21881108210A21858
:103690008210A21869522C6310842C638E6B5184A3
:1036A0003184308430843184107C107C107C107C18
:1036B000107CF07BF07BF07BF07BEF73CF73CF73EC
:1036C000CF73CF73AF73AF73AE73AE738E6BAE6BDE
:1036D0008E6B8E6B8E6B8E6B6E6B6D6B6D6B6D6BA5
:1036E0004D6B4D634D6B4D632C632C632C632C63CE
:1036F0000C630C630C5B0C5BEC5AEC5AEC5AEB5A07
:10370000EC5AEB5AEB5ACB5ACB5ACB5ACB5ACB5238
:10371000CB52AB52AA52AA52AA52AA52AA52AA52A7
:10372000AA52AA52AA528A4AAA52AA52AA52AA52E1
:10373000AB52AA52AB52AB52CB52CB52CB52CB5222
:10374000CB52CB52CB52EB5AEB5AEB5AEB5AEC5AC8
:103750000C5BEC5A0C5B0C5B0C5B0C5B0C5B0C5B52
:103760002C632C632D632D632D634D634D634D637B
:103770004D634D6B6D6B6D6B6E6B6E6B8E6B6E6BAD
:103780006E6B8E6BAE738E6BAE73AE738E6BCF73D0
:103790000C6369526110A218C218C318C318E32041
:1037A000E320E32003210421E32003210421452910
:1037B000A639653165318639653145316531A639BE
:1037C0004531E32024292429C318C318E3204529BF
:1037D0004529A639284A485248526852895A89626E
:1037E0008962A9620B738D834F9C4B7B0A730B73A9
:1037F0000B7B89628C8B2B7BAC8BCD8B2B7B274AF5
:10380000E741C641A64165312429E320E320E320B6
:10381000C318A218A2188210A21081108210A21838
:10382000C218A2180429EB5A2C638E73CB5A108449
:103830003184107C30843184318431843084107C34
:10384000107C107C107CF07BF07BF07BF07BEF7BBE
:10385000CF73CF73CF73CF73CF73AF73AF738F73D8
:103860008E6B8E6B8E6B8E6B6E6B6E6B6D6B6D6B12
:103870004D6B6D634D634D6B4D632D632C632C63FA
:103880000C632C5B0C5B0C630C5BEC5A0C5BEC5A12
:10389000EC5AEB5ACB5ACB5ACB5ACB5ACB5ACB5ABF
:1038A000AB52AB52AB52AB52AA52AB52AA52AA5233
:1038B000AA52AB52AA52AA52AA52AA52AA52AA5227
:1038C000AB52AB52CB52CB52CB52CB52CB52CB5250
:1038D000EB52EB5AEB5AEB5AEB5AEB5AEC5AEC5AC6
:1038E000EC5A0C5B0C5B0C5B0C5B2C630C5B2C6371
:1038F0002C632C632C634D634D634D634D634D63AB
:103900004D636D6B6D6B6E6B6E6B8E6B8E6B6E6BDA
:103910008E738E6BAE73AE73AE73AE73CF73AE73C6
:10392000EB5A0321A218C218A218C318E320E320FF
:10393000C318E3200421E320C318042104294531DE
:1039400085396531653186394529453186394531B5
:1039500045314429C3208218E3204529A639E74987
:10396000CA62EB6AAE8BCE8B4F9C0E94EE93EE93B5
:10397000AD8B8D8B8C8B8C8B2E9C90AC0E9C4FA426
:103980004FA490AC2B7BAC8B4FA40E944C7B0B7351
:10399000485A074A853965312429E3208210A21844
:1039A000C318A21861106110610881108110821083
:1039B000A218E320A21828428E738E732D638E7393
:1039C000518C518431843084107C31843084308433
:1039D00031843084107C107C107C107CF07BF07B78
:1039E000F07BCF73CF73CF73CF73CF73AF73AF73DE
:1039F000AF738E6BAE738E6B8E6B6E6B6E6B6E6B0E
:103A00006D6B4D6B6D6B4D6B4D634D634D632D63F6
:103A10002C630C630C630C630C630C630C5B0C5B1E
:103A2000EC5AEC5AEB5AEB5AEB5AEB5ACB5ACB5AAC
:103A3000CB5ACB52CB52AB52AB52AA52AB52AA5238
:103A4000AA52AB52AA52AA52AA52AA52AA52AA5295
:103A5000AB52AB52CB52CB52CB52CB52CB52CB52BE
:103A6000CB52CB5AEB5AEB5AEB5AEB5AEC5A0C5B53
:103A70000C5B0C5B0C5B0C5B0C5B2C630C5B2C63BE
:103A80002C632D632D634D634D634D634D636D6BEF
:103A90006D6B6D6B6E6B8E6B6E6B8E6B8E6B8E6BE0
:103AA000AE73AE73AE73AF73CF73CF73EF7B4D6BEB
:103AB0002842A2108210C318C218C318C318C31812
:103AC000E320C318E320A218E320C318E3208639BB
:103AD00045316531A63924298639863944318639FC
:103AE00024298218C3184531C641074A4852EB6A57
:103AF0000E9491A4D1B433BD73C594CDD5D574CDF6
:103B000094CD33C5D1B4B1B4B1B4D1BC32C5F2BCDB
:103B100094CD12BD2FA46FAC0EA4CD93AD8BCA6A09
:103B2000895A074AC64185392429E3200421E32024
:103B300082106110811061106108611061108210A3
:103B4000A2108210C3200321EB5AAF738E73CA52A6
:103B5000308451845184518451845184107C318447
:103B600031843184107C107C107C107C107CF07BC4
:103B7000F07BF07BF07BCF73CF73CF73CF73AF73DA
:103B8000AF73AF73AE73AE738E6B8E6B8E6B8E6BCB
:103B90006E6B6E6B6D6B4D6B4D6B4D6B4D634D6313
:103BA0002C632C630C632C630C630C630C630C633D
:103BB000EC5AEC5AEB5AEC5AEB5AEB5AEB5AEB5ADA
:103BC000CB5ACB5ACB5ACB52AB52AB52AB52AA5276
:103BD000AA52AB52AA52AA52AA52AA52AA52AB5203
:103BE000AB52CB52CB52CB52CB52CB52CB52CB520D
:103BF000CB52EB5AEB5AEB5AEB5AEB5AEB5A0C5BA3
:103C00000C5B0C5B0C5B0C5B2C632C632C632D63DB
:103C10002D632D634D634D636D6B4D636D6B6D6BEC
:103C20006D6B6D6B8E6B8E6B8E6B8E6B6E6BAE7306
:103C3000AE73AE73CF73CF73CF73CF73EF7BAA52D4
:103C4000E32082108210A218C318C318C318E320FF
:103C5000A218C318C218A218E320C318242965317A
:103C60004531653145296539863945316539C32086
:103C7000C2204431E7492852AA62CA6A6C7B70A408
:103C800012BDB5CD37DE57DE78E637DE57E637E6CC
:103C900037DE37DE37E694CD53CD13C533C512C5B5
:103CA000B5D533C5B1B46FACAD93EA7A2B7B0A734B
:103CB000685AE74985396531653965310421C3188A
:103CC000A218821061106110611061106108610812
:103CD0008210C318A218E320C6396D6BCF7B8E7398
:103CE0000C63EF7B1084518451845184518431845E
:103CF000318451843184318411843084107C107C6F
:103D0000107CF07BF07BF07BCF73CF73CF73CF73DE
:103D1000CF73CF73AF73AF73AE738E6B8E6B8E6BCF
:103D20008E6B6E6B6D6B6D6B6D6B4D6B4D6B4D6319
:103D30004D632D632C632C632C630C630C630C6349
:103D40000C63EC5AEC5AEC5AEC5AEB5AEB5ACB5A3D
:103D5000CB5ACB5ACB5ACB5AAB52AB52AB52AB52DB
:103D6000AA52AB52AA52AA52AA52AA52AA52AA5272
:103D7000CB52CB52CB52CB52CB52CB52CB52CB525B
:103D8000EB5AEB5AEB5AEB5AEB5AEB5AEC5A0C5BE8
:103D90000C5B0C5B0C5B0C5B0C5B2C632C634D6352
:103DA0002D634D634D634D634D636D6B6D6B6D6B3B
:103DB0006E6B6E6B8E6B8E6B8E6B8E738E6BAF734A
:103DC000AF73CF73CF73CF73CF73F07B4D6BA639C7
:103DD00082108210E320A218A218C318C320A218D0
:103DE000C318C3188210C318C318E32086314529AD
:103DF000452986316531653165316531E3202429F6
:103E0000C649A96A2B7B8C8BAD9390A412B594C53F
:103E100016D678E678E6B9EEB9EEB9EE98EE99EEF8
:103E200098EE78EE57E636DED5D5B5D5B5D5B5D50D
:103E3000B5D594D533C590B470AC0E9C4EA44B7BD5
:103E4000C96A8962074AA63986394429C318C31842
:103E5000A218A218A21882106110610861086108F6
:103E600061088218A218E32024298952F07BEF7B95
:103E7000EB5AEF7B1084318451845184728C728CA4
:103E80003184518451845184318431843084107C54
:103E9000107C107C107CF07BF07BF07BEF73CF7399
:103EA000CF73CF73AF73AF73AF73AE738E6B8E6B15
:103EB0008E6B8E6B6E6B6D6B6E6B6D6B4D6B4D6B3E
:103EC0004D6B4D6B2D632D632C630C630C630C6386
:103ED0000C630C5BEC5AEC5AEB5AEC5AEB5ACB5A8B
:103EE000CB5ACB5ACB5ACB52CB52AB52AB52AB5232
:103EF000AA52AB52AA52AA52AA52AA52AB52CB52BF
:103F0000AB52CB52CB52CB52CB52CB52CB52EB5AC1
:103F1000EB5AEB5AEB5AEB5AEB5A0C5B0C5B0C5B13
:103F20000C5B0C5B2C632C632C632D634D634D6326
:103F30004D634D634D636D6B6D6B6D6B6E6B6E6B37
:103F40006E6B8E6B8E6B8E6B8E6BAE738E6BAF7378
:103F5000CF73CF73CF73CF73EF7BCF73EB5AA218AE
:103F60008210C318A218A218A218C318A218A21867
:103F7000C318A218A218C318C31824294529242934
:103F800065316531653165314531E3208539A96A8F
:103F9000EE9B6FB4F2C453CD74CDD5CD36DE78E64A
:103FA00098E6B9EEFAEEFAF6FAF6FAF6D9EED9EEA6
:103FB000D9EEB9F698EE57E637E6F6DDD5D5B5D5A4
:103FC00094CDB5D553CD94CDF2BCB0BC90B4ED9B9F
:103FD000E9728862074AE74165394431E320A21853
:103FE00061106110410882108210811081106108F7
:103FF00061086110A218C3180421C739CB5A318453
:10400000CF7BEF7BCF7B107C518C718C5184728C79
:10401000728C318451845184518451843184308430
:104020003084107C107C107C107CF07BF07BF07B6B
:10403000EF73CF73CF73CF73AF73AF73AF73AE73D1
:10404000AE738E6B8E6B8E6B6D6B6D6B6D6B4D6B24
:104050004D6B4D632D632D632C630C632C630C63DC
:104060000C630C630C5BEC5AEC5AEC5AEB5AEB5AAF
:10407000CB5ACB5ACB5ACB5ACB52CB5ACB5AAB5248
:10408000AA52AB52AA52AA52AA52AB52AA52AB524D
:10409000AB52CB52CB52CB52CB52CB5ACB5AEB5A20
:1040A000EB5AEB5AEB5AEB5AEC5A0C5BEC5A0C5BA2
:1040B0000C5B0C5B2C632C632C632D632D634D63B5
:1040C0004D634D634D636D6B6D6B6D6B6E6B6E6BA6
:1040D0008E6B8E6B8E6B8E6BAE73AE73AE73CF7357
:1040E000CF73CF73CF73EF73CF7B8E73A63961100D
:1040F0008210C318A218A218A218C318C318A218B5
:104100008210A218A218A218A2186531242985319C
:104110006531453145316531C320C6416C8B12C5CF
:10412000D5DDF6E516E6D5DD37E698EEB9EEB9EE63
:10413000DAEEFAF6FAF61BF71AF7FAF6FAF6FAF6E4
:10414000FAEEFAF6B9EE98EE58EE17E616DED5D589
:10415000D5D594CDB5D595D512C553CD4FACD2BCE0
:10416000ED93C972A96A0752853944294429452922
:10417000A2186210410820006108821061088210B4
:104180008210410861108210C3182429294A6D6BDE
:10419000928C4D6B51843084F07B728C7184928C44
:1041A000728C5184718C718C51845184518431840E
:1041B000118431843084107C107C107C107CF07B66
:1041C000EF7BEF7BEF7BCF73CF73AF73AF73AE73C8
:1041D000AE738E738E736E6B8E6B6E6B6E6B6D6B60
:1041E0004D6B4D6B4D634D632D632D632C630C63E1
:1041F0000C630C630C630C5BEC5AEC5AEB5AEB5AF5
:10420000EB5ACB5ACB5ACB5ACB5ACB5ACB52CB5276
:10421000AB52CB52AA52AA52AA52AB52AB52AB5299
:10422000CB52CB52CB52CB5ACB52CB52CB5AEB5A6E
:10423000EB5AEB5AEB5AEC5A0C5B0C5B0C5B0C5BCD
:104240000C5B0C5B2C632C632D632D634D634D6302
:104250004D634D636D6B6D6B6D6B6D6B6E6B8E6BCC
:104260008E6B8E6B8E6BAE73AF73AF73AE73CF739B
:10427000CF73CF73EF7B107C6D6BAE73C318A21836
:10428000C218A218A2188210C320A218A218A2183D
:104290008210A2188210C2180429242944296531E9
:1042A000453186394531E31885416C8B74D537EE3D
:1042B00037E657E698EE99EEB9EEDAEEDAF6FAF668
:1042C0001AF71BF71BF73BFF1BF71BF71BF71BF737
:1042D000FBF6DAF6D9F698EE78EE57E616DEF6DD5E
:1042E000D5D5B4D594D5B5D553C574CDB0BCD1BC56
:1042F000B0B4AD8BCA6A685AC641A6394431242984
:10430000042182108210621041084108821041107D
:104310004108821061106110A2180421A639AA5226
:10432000CF731084AF73F07B9294F07B518C728CBE
:10433000518451845184728C728C718C518431847B
:104340003184318431841084107C107C107C107C8A
:10435000F07BF07BF07BCF73CF73CF73CF73CF73D2
:10436000AE73AE73AE738E6B8E6B8E6B6E6B6D6B4E
:104370006D6B4D6B4D6B4D6B2D632D632D630C631E
:104380000C630C630C630C630C5BEC5AEC5AEC5A38
:10439000EB5AEB5AEB5ACB5ACB5ACB5ACB5ACB529D
:1043A000AB52AB52AA52AA52AA52AB52CB52CB52E8
:1043B000CB52CB52CB5ACB5AEB52CB52EB5AEB5A95
:1043C000EB5AEB5AEB5AEC5A0C5B0C5B0C5B0C5B3C
:1043D0002C632C630C5B2C632D634D634D634D6329
:1043E0004D636D6B6D6B6D6B8E6B8E6B8E6B8E6BB1
:1043F0008E6BAE73AF73AF73CF73CF73AE73CF7378
:10440000EF7BEF7BF07BAE7311840842811082104A
:10441000C318C3188210A218A218A218C2188110BB
:10442000A2188210A21803210321E3204531242978
:1044300065396531E3286531CA7A12CD37E678EE01
:1044400078EE78EEB9F6D9F6FAF6FAF6FAF61BF740
:104450001BF71BF73BFF3BFF3BFF1BF71BF71BF754
:104460001BF7FAF6DAF6B9F698EE57E617E6F6DD38
:10447000D5D5D5DDD5D574CD53CD74D511C54FA4C3
:104480000FA42F9C2B7BCA6A4852C6418539242928
:104490002429A318611082104108610821086110C5
:1044A00061104108611082108110C3180421A639DF
:1044B0008E6B518CCF733184CF73928CEF7BB2941F
:1044C000928C718C518451845184728C718C518482
:1044D000518451845184318411843084107C107C47
:1044E000107C107CF07BF07BCF73CF73CF73CF73D6
:1044F000CF73AF73AF73AE73AE6B8E6B8E736E6B29
:104500006D6B6D6B4D6B4D6B4D632D632D632C632C
:104510002C630C630C630C630C63EC5AEC5AEC5A7E
:10452000EB5AEB5ACB5AEB5ACB5ACB5ACB5ACB520B
:10453000CB52CB5AAA52AA52AA52AB52CB52CB520E
:10454000CB52CB5ACB5ACB5AEB52CB52EB5AEB5AFB
:10455000EB5AEC5AEC5A0C5B0C5B0C5B0C5B0C5B87
:104560002C632C632C632D634D634D634D634D634E
:104570006D6B6D6B6D6B8E6B8E6B8E6B8E6B8E6BD6
:10458000AE73AE73AE73AE73CF73CF73AE73F07B97
:10459000EF7BF07B107C8E731084A2188210C218FF
:1045A000C318C2188210C3188210A218A218A21829
:1045B000A218C218E320E320E3204429452945310D
:1045C00045310429042907528FB416E657EE78EED8
:1045D00098EEB9F6FAF6FAF61AF71BF71BF73BFF57
:1045E0003BFF3BFF3CFF3CFF3BFF3BFF3BFF3BFFF9
:1045F0001BF7FAF6FAF6B9F698EE78EE37E617E614
:10460000F6DDF5DDD5DDB5D5D5DD53CD12C54FAC25
:10461000AD93EE932B7BA96A485AC641863924296B
:10462000A318C318A210610862104108410841088C
:10463000410861104008611082108210C218AA5A05
:1046400028423084AF735184518C518C728C5184C8
:10465000B394728C928C928C928C51843184728C33
:10466000718C518451845184318431843184107C23
:10467000107C107C107CF07BF07BF07BEF7BCF73A9
:10468000CF73CF73AF73AE73AE738E6B8E6B8E6B57
:104690006E6B6D6B6D6B6D6B4D6B4D634D632D6311
:1046A0002C630C630C630C630C630C5B0C5BEC5AAB
:1046B000EC5AEB5AEB5ACB5ACB5ACB5ACB5ACB5A71
:1046C000CB52CB5AAB52AA52AB52CB52CB52CB525B
:1046D000CB52EB52CB52CB5AEB52EB5AEB5AEC5A31
:1046E000EC5AEB5A0C5B0C5B0C5B0C5B0C5B2C63AD
:1046F0000C5B2C632C634D634D634D636D6B4D639D
:104700006D6B6D6B6E6B8E6B8E6B8E6BAE73AE73F3
:10471000AE73AF73AE73CF73CF73EF7BCF73EF7B9B
:10472000F07B107C8E6B5184CB5A6110A218C31899
:10473000C218A218A218C318A218A218A218821090
:10474000C3188210C218E320E320242924296539E4
:10475000E320242965396C93B4DD57EE78EE78EECA
:1047600099F6D9F6FAF61AF71BF73BFF3BFF3BFF2A
:104770005CFF5CFF5CFF3CFF3BFF3BFF3BFF3BFF05
:104780003BFF1AF7FAF6D9F6B9F678EE57EE37E6A8
:1047900017E616E6F5DDB5D5F6DD94D5B0BCD1BC8F
:1047A000CD9B0A732B7BEA72685A074A8639242903
:1047B000E3208210821082106108410841084108FC
:1047C000610881108110410861108110A2186529CB
:1047D00008428E73728C107C928CCF7BD394718C38
:1047E000B394928CB294B294928C928C928C3184C9
:1047F000728C718C718451845184518431843184E0
:104800003084107C107C107C107CF07BF07BF07B83
:10481000EF73CF73CF73CF73AF73AE738E6B8E6B3B
:104820008E6B6E6B6E6B6D6B4D6B4D6B4D634D6335
:104830002D632C632C630C630C630C630C630C5BA7
:10484000EC5AEB5AEC5AEB5AEB5ACB5ACB5ACB5A9E
:10485000CB5ACB5AAB52AB52CB52CB52CB52CB52A0
:10486000CB52CB52CB52EB52EB5AEB5AEB5AEC5A9F
:10487000EB5A0C5B0C5B0C5B0C5B0C5B0C5B2C63FA
:104880002C632C634D634D634D636D6B6D6B6D6B72
:104890006D6B6E6B8E6B8E6B8E6BAE73AE73AE7319
:1048A000AF73AF73CF73CF73CF73EF7BEF7BCF73E8
:1048B000EF7BF07B8E6B518404218210C218C318E9
:1048C000C218A218C318C218A218A218A218C31896
:1048D0008210A218C21824292429E3286531E3286C
:1048E00024294531A97212CD16E657EE98EEB9F695
:1048F000B9F6DAF61BF71BF73BFF1BF73CFF5CFF33
:104900003CFF5CFF5CFF5CFF3CFF5CFF5CFF3BFF30
:104910003BFF1BF71AF7D9F6B9EE78EE57EE57E6DC
:1049200037E637E616E6F6DDF5DDB5DD32CD4FAC20
:104930000EA46C83CA6A0B73AA6228528639442972
:10494000E320C31882108210621062106108821086
:104950004108411041086110410841086110E320FD
:104960000321AA5A92948E73F49C107C718CF39C50
:10497000718CB294B394B394B394928C928C928CC5
:104980005184728C728C718C518451845184318425
:10499000318411843084107C107C107CF07BEF7BA0
:1049A000EF7BEF7BCF73CF73CF73AE73AE738E732A
:1049B0008E738E6B6E6B6D6B6D6B4D6B4D6B4D6B4C
:1049C0002D632D632C632C630C630C630C5B0C63F5
:1049D000EC5AEC5AEC5AEB5AEB5AEB5ACB5ACB5AEC
:1049E000CB5AEB5AAB52AB52AB52CB52CB52CB520F
:1049F000CB52CB52CB52EB5AEB5AEB5AEC5AEC5A05
:104A0000EC5A0C5B0C5B0C5B0C5B0C5B2C632C633F
:104A10002D632D634D634D634D636D6B6D6B6D6BDE
:104A20006E6B8E6B8E6B8E6B8E6BAE73AF73AF7364
:104A3000AF73CF73CF73CF73CF73F07BEF7B107CEB
:104A4000107CAF73107C4D6B8218A218A218E32063
:104A5000A218A218A218A218A218C320A218C32034
:104A6000A218C2182429E320042945314531E3283E
:104A70004431C6514EACF5E537EE78EE98EEB9F616
:104A8000D9F6DAF61BF73BFF3BFF3BFF3CFF5CFF31
:104A90003CFF5CFF5CFF5CFF5CFF5CFF5CFF5CFF5E
:104AA0003BFF1BF71AF7D9F6B9F698EE78EE58EEF9
:104AB00057E637E617E616E6F5DDF5DD94D5D1BC09
:104AC000D1BCAD934C7B89628A5A4952E741863901
:104AD0004529E420C3188210A210821082106110B0
:104AE0002108200841084108611061106110A218D6
:104AF000A2188531AE733184928CD394CF7BF39C12
:104B0000728CB394D394B394B3949294B294928CE1
:104B1000728C728C728C728C728C51845184518420
:104B200051843184318431843084107C107C107C39
:104B3000F07BEF7BEF7BCF73CF73CF73AF73AE732D
:104B40008E738E6B8E6B8E6B6E6B6D6B6D6B4D6B38
:104B50004D6B4D632C632C630C632C630C630C63F3
:104B60000C63EC5AEC5AEC5AEB5AEB5AEB5AEB5AF0
:104B7000CB5ACB5AAB52CB52CB52CB52CB52CB525D
:104B8000CB52CB52EB5AEB5AEB5AEB5AEC5AEC5A4B
:104B90000C5B0C5B0C5B0C5B0C5B0C5B2C632C638D
:104BA0002D634D634D634D636D6B6D6B6D6B6E6B04
:104BB0006E6B8E738E6B8E6BAE73AE73CF73CF7363
:104BC000CF73CF73CF73CF73EF7BF07B107C107CF0
:104BD0003084AF73318486318210C318A218E32069
:104BE000A210A218C318A218C318A218C320C32069
:104BF000A2180321E3200429032924310329453184
:104C000064316C9353D536E657EE78F699F6D9F6BB
:104C1000DAF6FAF61BF73BFF3BFF3BFF5CFF5CFF5E
:104C20005CFF5CFF5CFF5CFF5CFF5CFF5CFF5CFFAC
:104C30003BFF1BF71AF7D9F6B9F699EE78EE78EE46
:104C400078EE57EE37E636E6F6DDD5DDD5DD53CD29
:104C5000F2C4D1BC6C832B736952695AE741653148
:104C60000421C318A31062108210A21882106110D0
:104C700061104108611061104108611081108110BC
:104C8000A218C3184429518C3184728C92943084B8
:104C9000B394B294D394D394B394B394B394B2949E
:104CA000B294718C928C928C728C728C718C5184B7
:104CB000518451845184318431843084107C107C3F
:104CC000107CF07BF07BF07BCF73CF73CF73AF732F
:104CD000AE73AE738E6B8E6B6E6B6D6B6D6B6D6B3F
:104CE0004D6B4D6B4D632D632D632C630C630C6317
:104CF0000C630C630C5BEC5AEC5AEB5AEB5AEB5A14
:104D0000EB5AEB5AAB52CB52CB52CB52EB52CB526B
:104D1000CB52EB5AEB5AEB5AEB5AEC5AEB5A0C5B70
:104D20000C5B0C5B0C5B0C5B0C5B2C632D632D63D1
:104D30004D634D634D634D636D6B6E6B8E6B8E6B10
:104D40008E6B8E6B8E6BAE73AE73AF73CF73CF7390
:104D5000CF73CF73EF7BF07B107C107C107C107CCA
:104D60003184CF7BEF7B04218210A218E320C2188C
:104D7000C218C318C318A218C318A218A218821008
:104D8000E420E3200321E328242924292429443191
:104D9000896AB0BCD5DD36E657EE98EED9F6DAF67C
:104DA000FAF6FAF61BF73BFF3BFF3BFF5CFF3CFFCD
:104DB0005CFF5CFF5CFF5CFF5CFF5CFF5CFF5CFF1B
:104DC0003CFF1BF71AF7D9F6B9F6B9F678EE78EE8C
:104DD00078EE78EE57EE37E636E6F5DDF5DDB4D55C
:104DE00053CDD1BCF2BC2B7BCA624952084A8631F2
:104DF0002529A318C3180421C318A210621061103A
:104E00006108210841086108410861106110A21879
:104E1000C218242944294429518CD394D394107C5A
:104E20009294928CF49CF39CD394D394B394B394C3
:104E3000B394728C928C928C728C928C728C728CD9
:104E4000718C718451845184318431841184107C3B
:104E5000107C107CF07BF07BEF7BCF73CF73CF7334
:104E6000AF73AE73AE738E738E736E6B6D6B6D6B53
:104E70004D6B4D6B4D6B2D632D632D632C630C635C
:104E80000C630C630C5BEC5AEB5AEB5AEB5AEB5A83
:104E9000EB5AEB5AAB52CB52CB5ACB5ACB52CB52EA
:104EA000EB5AEB5AEB5AEB5AEB5AEC5AEC5AEC5AD7
:104EB0000C5B0C5B0C5B2C630C5B2C632D634D63F8
:104EC0004D634D636D6B6D6B6D6B6E6B8E6B8E6B2F
:104ED0008E6BAE73AE73AE73AF73CF73CF73EF7B66
:104EE000EF7BCF73F07BF07BF07B107C107C308409
:104EF0003184F07B0B63E320A218A2180321C318AE
:104F0000C318C320C318C320C320A218A218C320EB
:104F1000C320032124290429042924294431C64912
:104F2000EDA394D516E637EE78EE99F6D9F6FAF6B3
:104F3000FAF61AF71BF73BFF3BFF5CFF5CFF5CFFD9
:104F40005CFF5CFF5CFF5CFF7CFF7CFF7CFF3CFF49
:104F50003BFF3BFF1AF7FAF6D9F6B9EE98EE98EE5A
:104F600078EE78EE58EE57E636E616E6D5DDD5DD76
:104F7000B5DDF2C470AC90AC4C7B48520742C739E7
:104F800086316629E4208210621061106110610888
:104F90006108610820004108400841086110811043
:104FA0008210E3200421284A24293084359DD3949B
:104FB0001084D394928CF39CF394D394D394B394AD
:104FC000D394928CB394928C928C928C928C728C9F
:104FD000728C5184518431843184318431843184A0
:104FE0003084107C107CF07BF07BEF7BEF7BCF7309
:104FF000CF73CF73AE738E738E736E6B8E6B6E6B5F
:105000006D6B6D6B4D6B4D6B4D632D632C632C6322
:105010000C630C5B0C63EC5AEC5AEB5AEC5AEC5AEE
:10502000EB5AEB5AAB52CB52CB5ACB5ACB5ACB5A48
:10503000CB5ACB5AEB5AEB5AEC5AEC5AEC5A0C5B63
:105040000C5B0C5B0C630C632C632C632C634D6357
:105050004D634D6B4D6B6D6B6D6B6E6B8E6B8E6BB5
:105060008E738E73AF73CF73CF73CF73EF7BEF7B82
:10507000EF7BCF73F07B107C107C308431843184E3
:10508000F07B10840842A218C218A218C318A218F4
:10509000C318C320E320E320A218A218E320C318FA
:1050A00003212429042904292429E32865390A7BBA
:1050B000F1C4F6DD37E678EE98F6B9F6F9F6FAF6C9
:1050C0001BF71BF73BFF3BFF3BFF5CFF5CFF5CFFFD
:1050D0005CFF5CFF5CFF5CFF5CFF5CFF5CFF5CFFF8
:1050E0003BFF1BF7FAF6FAF6F9F6F9F698F698EEA2
:1050F00098EE78EE78EE58EE37E616E6F5DDF5DD5B
:1051000074D553CDB1B4AD938C838962E7496531D1
:10511000E320A21882106108610861086108610833
:1051200062104108410820008110410841086110C7
:105130006110A21804212429494A8639518C359DD1
:10514000518C728CF39CD394D394F49CF39CD394A1
:10515000D394928CB394B394928C928C728C728C04
:10516000728C728C728C718C518451843184308435
:10517000107C107C107C107C107CF07BEF7BEF7B34
:10518000CF73CF73AE73AF73AE738E738E736E6B5C
:105190006E6B6D6B6D6B4D6B4D6B2D632C630C6388
:1051A0000C630C630C630C5BEC5AEC5AEB5AEC5A34
:1051B000EB5AEB5AAB52CB5ACB5ACB5ACB5ACB5AAF
:1051C000EB5AEB5AEB5AEB5AEC5AEC5A0C5B0C5B71
:1051D0000C5B0C5B0C632C632C632D634D634D6384
:1051E0004D634D6B6E6B6D6B8E6B8E6B8E6BAE739A
:1051F000AE73AE73AF73CF73CF73EF7BEF7BF07B88
:10520000F07BEF7B107C107C107C318431845184E6
:10521000F07B8E73A639A218C218C318C320A21837
:10522000C318A218C318E320C218C218A218A218E3
:1052300024290429E328042903292429485A2EACC7
:1052400094DD16E657E698EEB9F6D9F6FAF6FAF6D0
:105250001BF71BF71BF73BFF3BFF3BFF5CFF5CFFB4
:105260005CFF5CFF5CFF5CFF5CFF5CFF5CFF5CFF66
:105270003BFF3BFF1AF7FAF6FAF6F9F6B9F698EEA5
:10528000B9F698EE58EE58EE57E616E6F5DDD5DDA0
:1052900094D573D532C52FA44C7BAA62E7498539D2
:1052A0000429C318C318A318A318A210A2106108D8
:1052B00061106108410861086108610861106110AE
:1052C00061108210C3180429E3208A520742CF7B61
:1052D000D39C107C14A5149D149DB394F49CF39C52
:1052E000D394928CB394B294B394B294B294928CBB
:1052F000928C728C928C728C718C518451845184FA
:1053000031843184107C107C107C107CF07BEF7B2E
:10531000EF7BCF73CF73CF73AF738E73AE738E7318
:105320006E6B6E6B6D6B6D6B4D6B4D6B2D632C638C
:105330002C630C630C630C630C5BEC5AEC5AEC5A58
:10534000EB5AEC5ACB52CB5ACB5ACB5ACB5AEB5ADC
:10535000EB5AEB5AEB5A0C5B0C5B0C5B0C5B0C5B7B
:105360000C5B0C5B2C632C632C634D634D634D63B2
:105370004D636E6B6E6B8E6B8E6B8E6BAE73AE739E
:10538000AE73CF73CF73CF73CF73EF7BF07B107C93
:10539000107C107C107C10841184318451847184C1
:1053A000F07BCB5A0421A218C318C218E320A2181C
:1053B000C318A218E320A218C318E3208210A21871
:1053C00004292429042904290429C6416B9312C500
:1053D000F6DD57E678EE99F6B9F6FAF6FAF61AF728
:1053E0001BF71BF71BF73BFF3CFF3CFF5CFF5CFF21
:1053F0005CFF5CFF5CFF5CFF5CFF5CFF5CFF5CFFD5
:105400005CFF3BFF1BF71AF71AF7FAF6F9F6D9EE2D
:10541000B9EE78EE78EE78EE58EE16E6F5DDD5DDED
:1054200094D573CD53CDB0B4EE93EA6A895A8539D9
:1054300065310421C31882106210410861086210AE
:105440004108411041086108610861106110611054
:10545000A2188110A218C320C739C3184952C639EF
:10546000CF7B718CB394F49C149D149DF39CD394C6
:10547000928CF49CF39CF39CD394D394B394B29405
:10548000B294928C928C928C728C718C51845184D7
:10549000518431843184107C107C107C107C107C11
:1054A000F07BEF7BEF7BCF73AE73AE73AE738E7317
:1054B0008E736E6B6D6B6D6B4D6B4D6B4D6B2D63AA
:1054C0002C630C630C630C630C630C5BEC5AEC5A9E
:1054D000EB5AEC5ACB52CB52CB5ACB5ACB5AEB5A53
:1054E000EB5AEB5AEC5AEC5AEC5A0C5B0C5B0C5B2B
:1054F0002C632C632C632C632D634D634D634D63D0
:105500006D6B6D6B8E6B8E738E73AE6BAE73AE7395
:10551000AF73CF73CF73EF7BF07BF07B107C107C8D
:10552000107C107C107C31843184518451845184EE
:10553000CF7B0842A218C318A218A218C318A21839
:10554000A218A218C320A218C3188210811004291F
:10555000042904290429E3204531A96A0EAC73D536
:1055600016E657EE98EEB9F6D9F6FAF6FAF6FAF626
:105570001BF71BF71BF73BFF3BFF3CFF5CFF5CFF90
:105580007CFF5CFF5CFF5CFF5CFF7CFF5CFF5CFF03
:105590003CFF3BFF1BF71BF7FAF61AF7FAF6F9EE9A
:1055A000B9EE98EE78EE78EE58EE37E616E6F6DDD0
:1055B000B5DD94D573CD53CDD1B46C8BCA6A074A8F
:1055C0004431C3186210611062106108410841083B
:1055D00041084108410841086110611081108210A2
:1055E0008110A218C3180321E320C639A21828424B
:1055F000284AEF7BCF7B35A5159D928C728C718CE0
:10560000518C728C718C518451845184B294928CDF
:10561000928C928C928C928C928C728C728C718CFB
:105620005184518451843184107C107C107C107C16
:10563000F07BEF7BEF7BAF73AF73CF73AE738E7383
:105640008E738E6B6E6B6D6B6D6B4D6B4D6B2D63D7
:105650002D632D630C632C630C630C630C5B0C6378
:10566000EC5AEC5ACB52CB52CB5ACB5ACB5AEB5AC0
:10567000EB5AEC5AEC5AEC5A0C5B0C5B0C5B0C5B77
:105680002C632C632C632D634D634D634D636D6BF5
:105690006D6B8E6B8E6B8E738E73AE73AE73CF73BA
:1056A000CF73CF73EF7BF07BF07BF07B107C117CB2
:1056B00031843184107C318451845184318451840B
:1056C0004D6B6531A218C3188210C318A218C218F6
:1056D0008218C218C320C320A2188210C21804293D
:1056E000E328042903210329C6416B83B1BCF5DDFE
:1056F00016E657EE98EEB9F6D9F6FAF6FAF61BF773
:105700001BF73BFF1BF71BF73BFF3CFF5CFF5CFFFE
:105710007CFF7CFF5CFF5CFF7CFF5CFF7CFF5CFF31
:105720005CFF3BFF3BFF1BF71AF71AF7FAF6F9EE9F
:10573000D9EE98EE98EE78EE58EE57EE16E6F6DDD6
:10574000B5DD94D573CD32CDB1B42E9C896228528B
:10575000A639E320A2106210610861086110610897
:10576000410820086108410861086110A2188210F0
:1057700082108210A218E3206531A6390842C318AE
:10578000084269520C632C6B928CF49CF49CD39469
:10579000F49CF39CF39CD394B394B3945184928C73
:1057A000928C518431843184728C728C728C728CA4
:1057B000728C518451845184318430843084107CC3
:1057C000107CEF7BEF7BCF73CF73CF73AF73AE7370
:1057D0008E738E738E6B6E6B6D6B6D6B4D6B4D6BD5
:1057E0002D632D632C632C630C630C630C630C63BF
:1057F000EC5AEC5ACB5ACB5ACB5AEB5AEB5AEB5ADF
:10580000EC5AEB5AEC5AEC5A0C5B0C5B0C5B2C5BC5
:105810002C632C632D634D634D634D636D6B6D6B1A
:105820006E6B8E6B8E6B8E6BAE73AE73CF73CF73EE
:10583000CF73EF7BEF7BF07B107C107C107C30848F
:1058400031843184107C518430843184728C928C08
:10585000284AC318C318A218A218C318A218A2185D
:10586000A218C218C218C218A218A218E320E32076
:1058700004290429C3202429A96A0E9C94D516E67C
:1058800037E677EE98EED9EEF9F6FAF61AF71BF747
:105890001BF73BFF1BF73BFF3BFF3CFF3CFF3CFF85
:1058A0007CFF7CFF5CFF5CFF7CFF7CFF5CFF5CFFA0
:1058B0005CFF3BFF3BFF1BF71AF71AF7FAF6F9EE0E
:1058C000D9EEB9EEB8EE78EE58EE57E616E6F6DD0C
:1058D000D5DDB4D574D553CDD1BC6FAC4B83485214
:1058E00085392429E320A210821061104108410863
:1058F000410841084108610861108210821082103D
:10590000A218A218A218C3182429E741C7390742D0
:105910000321A6394C6B8E73B394D39CD394149DFE
:10592000D394F39CD394149DF49CF49CD394D3947B
:10593000D394D394B394928C51843184107C318469
:10594000728C728C718C5184518431843184107CBE
:10595000107CF07BCF73F07BCF73CF73AF73AF73DB
:105960008E738E738E736E6B6E6B6E6B6D6B4D6B19
:105970004D6B4D632D632C632C630C630C630C5BCC
:10598000EC5AEC5ACB5ACB5ACB5ACB5AEB5AEB5A6D
:10599000EB5AEC5A0C5B0C5B0C5B0C5B0C5B2C63EA
:1059A0002D632D634D634D634D634D636D6B6D6B67
:1059B0006E6B8E6B8E6BAE73AE73AF73CF73CF7334
:1059C000CF73EF7BF07B107C107C107C31843184B2
:1059D0003184518431843184718C5184728C30844F
:1059E0008639A218C318C218C218E320A218C21818
:1059F000C218E320E320C2188218C3180321C32071
:105A0000E3282429C320C6414B8390B4B5DD16E6B4
:105A100037E698EEB8EED9F6FAF6FAF6FAF61BF78C
:105A20003BFF3BFF3BFF3BFF3BFF3CFF5CFF3CFF83
:105A30007CFF7CFF5CFF5CFF7CFF7CFF5CFF5CFF0E
:105A40005CFF3BFF3BFF3BFF1AF71AF7FAF6FAF64B
:105A5000D9EEB9EEB8EE78EE58EE57E616E6F6DD7A
:105A6000D5DDB4D594D553CD53CDB0BC4FA4896208
:105A7000A6390421A218610861084108610841089B
:105A80004108210841084108410862108210821033
:105A9000A218A2188210C218032165316952C739B1
:105AA00008422429A6396D6B0B6314A555AD149DCE
:105AB000149DF49C149DF39CF49CF49CF49CB3946E
:105AC000D394D394D394B394B394B394928C718CB1
:105AD000518431843184718C51843184107C3184BF
