:020000040800F2
:10000000A80A0020D1060008ED010008EF01000851
:10001000F3010008F7010008FB01000800000000E0
:10002000000000000000000000000000FF010008C8
:10003000010200080000000003020008B5050008E6
:10004000EB060008EB060008EB060008EB060008CC
:10005000EB060008EB060008EB060008EB060008BC
:10006000EB060008EB060008EB060008EB060008AC
:10007000EB060008EB060008EB060008EB0600089C
:10008000EB060008EB060008EB060008EB0600088C
:10009000EB060008EB060008EB060008EB0600087C
:1000A000EB060008EB060008EB060008EB0600086C
:1000B000EB060008EB060008EB060008EB0600085C
:1000C000EB060008EB060008EB060008EB0600084C
:1000D000EB06000859050008EB060008EB060008CF
:1000E000EB060008EB060008EB060008EB0600082C
:1000F000EB060008EB060008EB060008EB0600081C
:10010000EB060008EB060008EB060008EB0600080B
:10011000EB060008EB060008EB060008EB060008FB
:10012000EB060008EB060008EB060008EB060008EB
:1001300000F002F800F03AF80AA090E8000C8244BF
:100140008344AAF10107DA4501D100F02FF8AFF29C
:10015000090EBAE80F0013F0010F18BFFB1A43F0A5
:1001600001031847C8170000E8170000103A24BF21
:1001700078C878C1FAD8520724BF30C830C144BF0C
:1001800004680C607047000000230024002500264E
:10019000103A28BF78C1FBD8520728BF30C148BFEA
:1001A0000B6070471FB51FBD10B510BD01F083FB7C
:1001B0001146FFF7F7FF00F003FA01F0A1FB03B4CB
:1001C000FFF7F2FF03BC01F0A9FB0000EFF3098089
:1001D000704780F309887047EFF30880704780F319
:1001E0000888704740BA7047C0BA7047704700BF70
:1001F000FEE700BFFEE700BFFEE700BFFEE7704777
:10020000704770470CB50020019000906C48006862
:1002100040F480306A49086000BF6948006800F413
:10022000003000900198401C0190009818B9019886
:10023000B0F5A06FF1D16248006800F4003010B151
:100240000120009001E0002000900098012843D197
:100250005C48006840F010005A4908600846006891
:1002600020F0030008600846006840F002000860C3
:10027000534840685249486008464068486008460C
:10028000406840F4806048600846406820F47C1074
:1002900048600846406840F4E81048600846006836
:1002A00040F08070086000BF4548006800F00070B2
:1002B0000028F9D04248406820F0030040494860D7
:1002C0000846406840F00200486000BF3C48406873
:1002D00000F00C000828F9D10CBD10B5FFF792FF13
:1002E00010BD10B53648006840F001003449086080
:1002F000084640683449084031494860084600686B
:10030000324908402E4908600846006820F48020E1
:1003100008600846406820F4FE0048604FF41F0063
:100320008860FFF7DAFF4FF000602949086010BDD0
:1003300010B5002100200022214B5B6803F00C0166
:1003400021B1042906D0082928D107E0214B224CED
:10035000236027E01F4B204C236023E0184B5B6891
:1003600003F47010164B5B6803F48032022303EB36
:10037000904022B9194B4343174C23600DE0104BBA
:100380005B6803F4003323B1144B4343124C2360E6
:1003900003E0104B4343104C236003E00D4B0E4C25
:1003A000236000BF00BF064B5B68C3F303130C4C14
:1003B000E15C094B1B68CB40074C236010BD00007B
:1003C00000100240002002400000FFF8FFFFF6FE90
:1003D00008ED00E000127A000000002000093D0056
:1003E0000400002070B502460B464FF6FF704AF23B
:1003F000010500210FE0545C6040002407E000F09C
:10040000010616B185EA600000E04010641C082C6B
:10041000F5DB4C1CA1B29942EDDB70BD2DE9F0413A
:1004200006460C4600F085FF342001F01DFA2046F8
:1004300004EBD0714910A4EB410109B1601C84B2F6
:10044000002519E01A480088C0F30A0018B91848B6
:10045000006800F0B3FF715D681C305C41EA002762
:1004600039461348006801F0ACF811480068801C58
:100470000F490860A81C85B2A542E3DB00F065FFC8
:10048000BDE8F08110B515210A4800F07EF810BDD6
:1004900070B50446206808490840B0F1005F06D1F5
:1004A00072B665682068FFF79AFEA84700BF70BD66
:1004B00018000020003801400000FE2F10B586B063
:1004C0000446012144F2040000F03EFC4FF40070A9
:1004D000ADF8140003208DF8160018208DF81700D1
:1004E00005A9314800F074F94FF48060ADF81400AC
:1004F00004208DF8170005A92B4800F069F9252084
:100500008DF8000001208DF801008DF802008DF8B3
:100510000300684600F085FE01940020ADF8080055
:10052000ADF80A00ADF80C00ADF810000C20ADF8E5
:100530000E0001A91D4800F0AEFC012240F2255139
:100540001A4800F040FD0121184800F030FD18481D
:1005500000F076F806B010BD10B50821134800F081
:1005600001FE10B1114800F093FD40F225510F48F3
:1005700000F00EFE40B10D4800F08AFDC4B22146E5
:100580000B4800F065F800BF10BD70B504460D467D
:100590002946204600F078FD00BF4021204600F0AB
:1005A000E1FD0028F9D070BD00080140003801408D
:1005B0003C0000201D480068401C1C490860704732
:1005C000FFF78FFE1A4800684FF47A72B0FBF2F121
:1005D000B1F1807F00D31DE021F07F40401E4FF03D
:1005E000E022506150170F22002807DA13071D0E72
:1005F000104B00F00F04241F1D5503E013071C0EC1
:100600000D4B1C5400BF00204FF0E02290610720EA
:10061000106100BF4FF4E130FFF750FF034800685E
:100620000649086001E0FFF72DFFFCE724000020E9
:100630000000002018ED00E000E400E014000020BD
:100640000021A0F80014A0F80214A0F804147047C8
:100650000246B2F80404B0F5806F01DB0020704759
:10066000B2F802041154B2F80234581CC31700EB5C
:1006700093539B12A0EB8323A2F80234B2F8040434
:10068000401CA2F804040120E9E70246B2F8040481
:1006900008B900207047B2F80004105C0870B2F886
:1006A0000034581CC31700EB93539B12A0EB832319
:1006B000A2F8003472B6B2F80404401EA2F8040492
:1006C00062B60120E6E70146B1F804047047000075
:1006D0000948804709480047FEE7FEE7FEE7FEE7D6
:1006E000FEE7FEE7FEE7FEE7FEE7FEE70448054912
:1006F000054A064B70470000E3020008310100087C
:10070000A8040020A80A0020A8060020A8060020AF
:1007100010B50446CC48844208D10121042000F0E1
:100720002DFB0021042000F029FB46E0C74884424D
:1007300008D10121082000F021FB0021082000F051
:100740001DFB3AE0C248844208D10121102000F08C
:1007500015FB0021102000F011FB2EE0BD48844263
:1007600008D10121202000F009FB0021202000F009
:1007700005FB22E0B848844208D10121402000F066
:10078000FDFA0021402000F0F9FA16E0B348844257
:1007900008D10121802000F0F1FA0021802000F032
:1007A000EDFA0AE0AE48844207D10121801500F03D
:1007B000E5FA0021A01500F0E1FA10BD10B5012105
:1007C000084600F0DBFA0021012000F0D7FA10BD46
:1007D0002DE9F041024600250026002000230024D8
:1007E000002791F803C00CF00F0591F803C00CF03E
:1007F000100CBCF1000F03D091F802C04CEA0505C3
:1008000091F800C0BCF1000F31D0146800202BE03B
:100810004FF0010C0CFA00F3B1F800C00CEA03062B
:100820009E4220D183004FF00F0C0CFA03F7BC431B
:1008300005FA03FC4CEA040491F803C0BCF1280F4C
:1008400006D14FF0010C0CFA00FCC2F814C00AE00B
:1008500091F803C0BCF1480F05D14FF0010C0CFA20
:1008600000FCC2F810C0401C0828D1D31460B1F8B5
:1008700000C0BCF1FF0F34DD546800202EE000F111
:10088000080C4FF0010808FA0CF3B1F800C00CEAAC
:1008900003069E4221D183004FF00F0C0CFA03F7A0
:1008A000BC4305FA03FC4CEA040491F803C0BCF114
:1008B000280F05D100F1080C08FA0CF8C2F81480D2
:1008C00091F803C0BCF1480F07D100F1080C4FF0BC
:1008D000010808FA0CF8C2F81080401C0828CED392
:1008E0005460BDE8F0814FF6FF71018002218170F4
:1008F0000421C17070470246002093680B400BB181
:10090000012000E0002070470146886880B27047EF
:1009100002460020D3680B400BB1012000E000200C
:1009200070470146C86880B27047016170474161F5
:1009300070470AB1016100E041617047C1607047D2
:100940004FF480320A4382618161826182698269E7
:10095000704702460020434B18684FF680731840DA
:1009600040EA021008433F4B186070473E49C86197
:100970007047F0B50A46002300240021002500F04E
:100980000046B6F1004F02D1364EF16901E0354E16
:100990007168C0F3034583B200F44016B6F5401FFA
:1009A00008D121F070612F4E766826F070662D4FC9
:1009B0007E6012E000F48016B6F5801F06D1032693
:1009C00006FA05F4A14341F0706106E0460D3601D8
:1009D00003FA06F6B14341F0706122B1460D3601CB
:1009E00003FA06F6314300F00046B6F1004F02D19B
:1009F0001C4EF16101E01B4E7160F0BD30B500226C
:100A00008B071C0F0F2303FA04F2164B08338C10CC
:100A100053F824309343134C08348D1044F8253098
:100A200023468C1053F824308C07240F00FA04F46A
:100A300023430C4C08348D1044F8253030BD0A494E
:100A4000DC3108607047000000080140000C0140E4
:100A5000001001400014014000180140001C01403A
:100A6000002001400000014000002042DF480068F3
:100A700040F00100DD49086008464068DC49084054
:100A8000DA49486008460068DA490840D7490860F2
:100A90000846006820F4802008600846406820F47A
:100AA000FE0048604FF41F0088607047CF49096816
:100AB00021F48031CD4A11601146096821F480216A
:100AC0001160B0F5803F03D0B0F5802F0ED106E065
:100AD000C649096841F48031C44A116007E0C3493E
:100AE000096841F4A021C14A116000E000BF00BFC5
:100AF000704710B501460022002300204A11012A48
:100B000002D1BA4C236806E0022A02D1B74C236A0C
:100B100001E0B64C636A01F01F02012494401C40BE
:100B20000CB1012000E0002010BD38B5002000907D
:100B30000024002500BF3120FFF7DBFF05460098A9
:100B4000401C00900098B0F5A06F01D0002DF2D0AD
:100B50003120FFF7CEFF08B1012400E00024204639
:100B600038BD01460020A14A106820F0F80040EA94
:100B7000C10010607047A04908607047024600201D
:100B80009A4B586820F47C1042EA01031843974BB3
:100B90005860704798490866704701460020934A9C
:100BA000506820F003000843506070478F48406849
:100BB00000F00C007047014600208C4A506820F07D
:100BC000F00008435060704701460020874A506893
:100BD00020F4E06008435060704701460020834ADB
:100BE000506820F4605040EAC1005060704729B15D
:100BF0007E4A527A02437D4B5A7204E07B4A527A13
:100C000082437A4B5A7270477B49D83108607047EB
:100C100001460020754A506820F440400843506067
:100C200070470021714A20321170704A82F82010FA
:100C3000012802D004280AD104E001216B4A2032A5
:100C4000117005E00521694A2032117000E000BFF3
:100C500000BF70476949086070476449096A0143E9
:100C6000624A11627047654944390860704730B57F
:100C700000210022002400235C4D6D6805F00C016A
:100C800021B1042905D0082923D105E05C4D056078
:100C900022E05B4D05601FE0544D6D6805F4701255
:100CA000524D6D6805F48034022505EB92421CB963
:100CB000544D554305600BE04C4D6D6805F400350F
:100CC0001DB1504D5543056002E04D4D5543056043
:100CD00002E04B4D056000BF00BF444D6D6805F05C
:100CE000F0010909484D6B5C0568DD4045603F4DEA
:100CF0006D6805F4E061090A434D6B5C4568DD40B1
:100D000085603A4D6D6805F46051C90A3E4D6B5CD3
:100D10004568DD40C560354D6D6805F44041890B7F
:100D20003A4D6B5CC568B5FBF3F5056130BD29B183
:100D30002E4A526902432D4B5A6104E02B4A5269F4
:100D400082432A4B5A61704729B1284A926902436B
:100D5000264B9A6104E0254A92698243234B9A61AB
:100D6000704729B1214AD2690243204BDA6104E07D
:100D70001E4AD26982431D4BDA61704729B11B4A72
:100D8000D2680243194BDA6004E0184AD268824301
:100D9000164BDA60704729B1144A12690243134BAB
:100DA0001A6104E0114A12698243104B1A617047BC
:100DB00012494039086070470F49C86470470B49B1
:100DC000C87170470948406A40F08070074948621E
:100DD000704701460020054A92680A400AB1012086
:100DE00000E00020704701498872704700100240FF
:100DF0000000FFF8FFFFF6FE00004242800442427E
:100E000000127A0000093D00280000203800002070
:100E100010B50446FB48844209D101218803FFF73D
:100E2000ADFF00214FF48040FFF7A8FF32E0F64805
:100E3000844209D101214804FFF7ADFF00214FF49E
:100E40000030FFF7A8FF25E0F048844209D10121D6
:100E50008804FFF7A0FF00214FF48020FFF79BFFDD
:100E600018E0EB48844209D10121C804FFF793FF41
:100E700000214FF40020FFF78EFF0BE0E54884428D
:100E800008D101210805FFF786FF00214FF48010EB
:100E9000FFF781FF10BD2DE9F04786B005460E46ED
:100EA0000024A24600BFA1460027B08900B100BFC0
:100EB0002F462C8A4CF6FF700440F08804432C82A5
:100EC000AC894EF6F3100440B0883189084371892B
:100ED00008430443AC81AC8A4FF6FF400440B0891C
:100EE0000443AC8201A8FFF7C2FEC648874202D184
:100EF000DDF810A001E0DDF80CA0A88900F40040A6
:100F000040B10AEBCA0000EB0A1031684900B0FB9F
:100F1000F1F807E00AEBCA0000EB0A10316889001B
:100F2000B0FBF1F86420B8FBF0F004012009642163
:100F300001FB1089A88900F4004040B1322000EB89
:100F4000C900B0FBF1F000F00700044308E03220D4
:100F500000EB09106421B0FBF1F000F00F00044336
:100F60002C8106B0BDE8F0874FF4165101600021D6
:100F70008180C18001810C214181002181817047E4
:100F800010B502460020108A4FF2FF0318400B886C
:100F90004C8823438C882343CC88234318431082F6
:100FA00010BD0021018041808180C180704721B146
:100FB000828942F40052828104E082894DF6FF73F7
:100FC0001A4082817047F0B50346002400260025B0
:100FD000002040F66A17B94200D100BF1846C1F39D
:100FE000421401F01F06012707FA06F5012C01D172
:100FF0000C3004E0022C01D1103000E014301AB1A2
:1010000007682F43076002E00768AF430760F0BD41
:101010001AB1838A0B43838202E0838A8B438382E3
:101020007047028A4FF6F0731A400282028A0A431E
:101030000282704782894FF2FF731A40828182894F
:101040000A438281704721B1828942F00202828183
:1010500004E082894FF6FD731A4082817047028A4C
:101060004FF6DF731A400282028A0A4302827047F7
:1010700021B1028A42F48042028204E0028A4BF6E5
:10108000FF731A4002827047C1F3080282807047E2
:1010900001468888C0F308007047818941F001014A
:1010A00081817047028BD2B20283028B42EA012215
:1010B00002837047028B02F47F420283028B0A4351
:1010C0000283704721B1828A42F02002828204E0CA
:1010D000828A4FF6DF731A408282704721B1828A7A
:1010E00042F01002828204E0828A4FF6EF731A40C7
:1010F0008282704721B1828A42F00802828204E033
:10110000828A4FF6F7731A408282704721B1828932
:1011100042F40042828103E08289C2F30E0282819E
:10112000704721B1828A42F40062828204E0828A9E
:101130004FF2FF731A4082827047828A4FF6FB7328
:101140001A408282828A0A438282704721B1828A4F
:1011500042F00202828204E0828A4FF6FD731A4056
:101160008282704702460020B1F5007F00D100BFA7
:1011700013880B400BB1012000E00020704701F400
:101180000072B2F5007F00D100BFCA4302807047F1
:1011900070B50246002400230025002040F66A16A0
:1011A000B14200D100BFC1F3421501F01F03012677
:1011B00006FA03F3012D02D19689334006E0022D91
:1011C00002D1168A334001E0968A33400C12012680
:1011D00006FA04F41688344013B10CB1012000E083
:1011E000002070BD10B50022002340F66A14A14211
:1011F00000D100BF0A1201249440A3B2DC43048052
:1012000010BD00000038014000440040004800408C
:10121000004C00400050004031490143314A116008
:10122000704770B5002100230F22C47804B32D4C01
:10123000246804F4E064C4F5E064210AC1F1040305
:10124000CA40447804FA03F1847814402143090128
:10125000254C0678A155047804F01F050124AC4004
:1012600005786D11AD0005F1E025C5F8004109E0F4
:10127000047804F01F050124AC401C4D067876115B
:1012800045F8264070BD1A4A0A400243154B1B1F01
:101290001A60704739B1134A121D12680243114B8C
:1012A0001B1D1A6006E00F4A121D126882430D4B87
:1012B0001B1D1A607047042808D14FF0E02109690E
:1012C00041F004014FF0E022116107E04FF0E0210E
:1012D000096921F004014FF0E0221161704700001C
:1012E0000000FA050CED00E000E400E080E100E021
:1012F00080FFFF1F01460020FE4A106800F0380002
:10130000084310607047FB49096821F00801F94A59
:10131000116011460968014311607047F549096879
:1013200021F01001F34A1160114609680143116070
:101330007047F148EF494860F04848607047EE4810
:10134000EC494860ED4848607047EA48006940F061
:101350008000E84908617047E648006940F0800075
:10136000E449086170470420E249C96801F00101BD
:1013700009B101200EE0DF49C96801F0040109B19B
:10138000022007E0DB49C96801F0100109B1032020
:1013900000E00420704700B502460423FFF7E3FF96
:1013A000034603E0FFF7DFFF0346521E012B01D186
:1013B000002AF7D102B90523184600BD30B504460E
:1013C00004254FF43020FFF7E6FF0546042D17D122
:1013D000C848006940F00200C649086108464461F7
:1013E000006940F0400008614FF43020FFF7D3FF60
:1013F0000546C048006941F6FD710840BD490861D5
:10140000284630BD10B504244FF43020FFF7C3FF49
:101410000446042C16D1B748006940F00400B549D1
:1014200008610846006940F0400008614FF4302030
:10143000FFF7B1FF0446AF48006941F6FB71084071
:10144000AC490861204610BD00B502460423FFF7F1
:101450008AFF034603E0FFF786FF0346521E012B77
:1014600001D1002AF7D102B90523184600BD10B5F5
:1014700004244FF43020FFF7E7FF0446042C16D174
:101480009C48006940F004009A49086108460069D8
:1014900040F0400008614FF43020FFF7D5FF0446CC
:1014A0009448006941F6FB71084092490861204662
:1014B00010BD00208F49C96901F0020109B1012066
:1014C00000E00020704730B5A5250424FFF7F1FFA8
:1014D00000B100254FF43020FFF75DFF0446042CD7
:1014E0003AD1854883498860844888600846006905
:1014F00040F0200008610846006940F040000861A3
:101500004FF43020FFF747FF0446042C1BD17948E5
:10151000006941F6DF7108407649086108460069B4
:1015200040F01000086176480580E002FFF733FFC5
:101530000446052C10D06F48006941F6EF71084051
:101540006C49086108E0052C06D06A48006941F63C
:10155000EF71084067490861204630BD78B50646FE
:101560000C46042500200090E802FFF714FF054612
:10157000042D24D15F48006940F001005D490861F5
:101580003480E802FFF707FF0546042D10D1B01C98
:101590000090200C00990880E802FFF7FCFE054649
:1015A0005448006941F6FE7108405249086106E05E
:1015B0005048006941F6FE7108404E4908612846CE
:1015C00078BD70B504460D460426F002FFF7E3FE31
:1015D0000646042E11D14748006940F001004549F4
:1015E00008612580F002FFF7D6FE064641480069F3
:1015F00041F6FE7108403F490861304670BD70B544
:1016000005460E460424E002FFF7C5FE0446042CFE
:1016100017D13948374988603848886008460069DA
:1016200040F0100008612E80E002FFF7B4FE04468F
:10163000052C06D02F48006941F6EF7108402D496E
:101640000861204670BD2DE9F04304464FF6FF7651
:101650003746B046B1460425E443E6B2C4F3072753
:10166000C4F307484FEA1469E802FFF794FE054601
:10167000042D49D120481F498860204888600846C9
:10168000006940F010000861FF2E06D01C480830A9
:101690000680E802FFF77FFE0546042D08D1FF2FE4
:1016A00006D017480A300780E802FFF774FE0546A7
:1016B000042D0AD1B8F1FF0F07D011480C30A0F863
:1016C0000080E802FFF767FE0546042D0AD1B9F154
:1016D000FF0F07D00A480E30A0F80090E802FFF78D
:1016E0005AFE0546052D0FD00248006941F6EF71FC
:1016F000084007E00020024023016745AB89EFCD99
:1017000000F8FF1F664908612846BDE8F08330B540
:10171000054604244FF43020FFF73DFE0446042C18
:1017200041D160485E4988605F488860084600692A
:1017300040F0200008610846006940F04000086160
:101740004FF43020FFF727FE0446042C22D15448E2
:10175000006941F6DF710840514908610846006997
:1017600040F0100008611DB100205049088002E0DF
:10177000A5204E4908804FF43020FFF70CFE0446A8
:10178000052C10D04648006941F6EF7108404449E5
:10179000086108E0052C06D04148006941F6DF7178
:1017A00008403F490861204630BDF0B505460E4669
:1017B000174604243B483A4988603B488860E00269
:1017C000FFF7E9FD0446042C19D13548006940F0C3
:1017D00010003349086147F0F8003043284333498B
:1017E000891C0880E002FFF7D6FD0446052C06D0D0
:1017F0002B48006941F6EF710840294908612046ED
:10180000F0BD2748C069800870472548006A7047C6
:1018100000202349096801F0200109B1012000E0FE
:101820000020704729B11E4A126902431C4B1A61FD
:1018300004E01B4A12698243194B1A617047014642
:101840000020012908D1164AD26902F001020AB12A
:10185000012008E0002006E0114AD2680A400AB1DF
:10186000012000E0002070470D49C8607047042047
:101870000B49C96801F0010109B101200EE00849D6
:10188000C96801F0040109B1022007E00449C968F0
:1018900001F0100109B1032000E0042070470000AE
:1018A0000020024023016745AB89EFCD00F8FF1F00
:1018B000704770477047754600F02CF8AE4605003B
:1018C0006946534620F00700854618B020B5FEF75C
:1018D0000DFFBDE820404FF000064FF000074FF02D
:1018E00000084FF0000B21F00701AC46ACE8C0093E
:1018F000ACE8C009ACE8C009ACE8C0098D46704747
:1019000010B50446AFF300802046BDE81040FEF756
:1019100056BC0000004870474404002001491820CC
:10192000ABBEFEE726000200704700004C1900081D
:10193000000000203C0000006C010008881900082D
:101940003C0000206C0A00008801000800A24A0444
:10195000000000000000000001020304060708095F
:10196000000000000000010800000000000000006E
:101970000000000000000000010203040102030453
:0819800006070809020406082D
:0400000508000131BD
:00000001FF
